{
  "_format": "hh-sol-artifact-1",
  "contractName": "MyEpicNFT",
  "sourceName": "contracts/MyEpicNFT.sol",
  "abi": [
    {
      "inputs": [],
      "stateMutability": "nonpayable",
      "type": "constructor"
    },
    {
      "anonymous": false,
      "inputs": [
        {
          "indexed": true,
          "internalType": "address",
          "name": "owner",
          "type": "address"
        },
        {
          "indexed": true,
          "internalType": "address",
          "name": "approved",
          "type": "address"
        },
        {
          "indexed": true,
          "internalType": "uint256",
          "name": "tokenId",
          "type": "uint256"
        }
      ],
      "name": "Approval",
      "type": "event"
    },
    {
      "anonymous": false,
      "inputs": [
        {
          "indexed": true,
          "internalType": "address",
          "name": "owner",
          "type": "address"
        },
        {
          "indexed": true,
          "internalType": "address",
          "name": "operator",
          "type": "address"
        },
        {
          "indexed": false,
          "internalType": "bool",
          "name": "approved",
          "type": "bool"
        }
      ],
      "name": "ApprovalForAll",
      "type": "event"
    },
    {
      "anonymous": false,
      "inputs": [
        {
          "indexed": false,
          "internalType": "address",
          "name": "sender",
          "type": "address"
        },
        {
          "indexed": false,
          "internalType": "uint256",
          "name": "tokenId",
          "type": "uint256"
        }
      ],
      "name": "NewEpicNFTMinted",
      "type": "event"
    },
    {
      "anonymous": false,
      "inputs": [
        {
          "indexed": true,
          "internalType": "address",
          "name": "from",
          "type": "address"
        },
        {
          "indexed": true,
          "internalType": "address",
          "name": "to",
          "type": "address"
        },
        {
          "indexed": true,
          "internalType": "uint256",
          "name": "tokenId",
          "type": "uint256"
        }
      ],
      "name": "Transfer",
      "type": "event"
    },
    {
      "inputs": [
        {
          "internalType": "address",
          "name": "to",
          "type": "address"
        },
        {
          "internalType": "uint256",
          "name": "tokenId",
          "type": "uint256"
        }
      ],
      "name": "approve",
      "outputs": [],
      "stateMutability": "nonpayable",
      "type": "function"
    },
    {
      "inputs": [
        {
          "internalType": "address",
          "name": "owner",
          "type": "address"
        }
      ],
      "name": "balanceOf",
      "outputs": [
        {
          "internalType": "uint256",
          "name": "",
          "type": "uint256"
        }
      ],
      "stateMutability": "view",
      "type": "function"
    },
    {
      "inputs": [
        {
          "internalType": "uint256",
          "name": "tokenId",
          "type": "uint256"
        }
      ],
      "name": "getApproved",
      "outputs": [
        {
          "internalType": "address",
          "name": "",
          "type": "address"
        }
      ],
      "stateMutability": "view",
      "type": "function"
    },
    {
      "inputs": [],
      "name": "getTotalSupply",
      "outputs": [
        {
          "internalType": "uint256",
          "name": "",
          "type": "uint256"
        }
      ],
      "stateMutability": "view",
      "type": "function"
    },
    {
      "inputs": [],
      "name": "incrementSupply",
      "outputs": [],
      "stateMutability": "nonpayable",
      "type": "function"
    },
    {
      "inputs": [
        {
          "internalType": "address",
          "name": "owner",
          "type": "address"
        },
        {
          "internalType": "address",
          "name": "operator",
          "type": "address"
        }
      ],
      "name": "isApprovedForAll",
      "outputs": [
        {
          "internalType": "bool",
          "name": "",
          "type": "bool"
        }
      ],
      "stateMutability": "view",
      "type": "function"
    },
    {
      "inputs": [],
      "name": "makeAnEpicNFT",
      "outputs": [],
      "stateMutability": "nonpayable",
      "type": "function"
    },
    {
      "inputs": [],
      "name": "name",
      "outputs": [
        {
          "internalType": "string",
          "name": "",
          "type": "string"
        }
      ],
      "stateMutability": "view",
      "type": "function"
    },
    {
      "inputs": [
        {
          "internalType": "uint256",
          "name": "tokenId",
          "type": "uint256"
        }
      ],
      "name": "ownerOf",
      "outputs": [
        {
          "internalType": "address",
          "name": "",
          "type": "address"
        }
      ],
      "stateMutability": "view",
      "type": "function"
    },
    {
      "inputs": [
        {
          "internalType": "uint256",
          "name": "tokenId",
          "type": "uint256"
        }
      ],
      "name": "pickRandomColor",
      "outputs": [
        {
          "internalType": "string",
          "name": "",
          "type": "string"
        }
      ],
      "stateMutability": "view",
      "type": "function"
    },
    {
      "inputs": [
        {
          "internalType": "uint256",
          "name": "tokenId",
          "type": "uint256"
        }
      ],
      "name": "pickRandomFirstWord",
      "outputs": [
        {
          "internalType": "string",
          "name": "",
          "type": "string"
        }
      ],
      "stateMutability": "view",
      "type": "function"
    },
    {
      "inputs": [
        {
          "internalType": "uint256",
          "name": "tokenId",
          "type": "uint256"
        }
      ],
      "name": "pickRandomSecondWord",
      "outputs": [
        {
          "internalType": "string",
          "name": "",
          "type": "string"
        }
      ],
      "stateMutability": "view",
      "type": "function"
    },
    {
      "inputs": [
        {
          "internalType": "uint256",
          "name": "tokenId",
          "type": "uint256"
        }
      ],
      "name": "pickRandomThirdWord",
      "outputs": [
        {
          "internalType": "string",
          "name": "",
          "type": "string"
        }
      ],
      "stateMutability": "view",
      "type": "function"
    },
    {
      "inputs": [
        {
          "internalType": "address",
          "name": "from",
          "type": "address"
        },
        {
          "internalType": "address",
          "name": "to",
          "type": "address"
        },
        {
          "internalType": "uint256",
          "name": "tokenId",
          "type": "uint256"
        }
      ],
      "name": "safeTransferFrom",
      "outputs": [],
      "stateMutability": "nonpayable",
      "type": "function"
    },
    {
      "inputs": [
        {
          "internalType": "address",
          "name": "from",
          "type": "address"
        },
        {
          "internalType": "address",
          "name": "to",
          "type": "address"
        },
        {
          "internalType": "uint256",
          "name": "tokenId",
          "type": "uint256"
        },
        {
          "internalType": "bytes",
          "name": "_data",
          "type": "bytes"
        }
      ],
      "name": "safeTransferFrom",
      "outputs": [],
      "stateMutability": "nonpayable",
      "type": "function"
    },
    {
      "inputs": [
        {
          "internalType": "address",
          "name": "operator",
          "type": "address"
        },
        {
          "internalType": "bool",
          "name": "approved",
          "type": "bool"
        }
      ],
      "name": "setApprovalForAll",
      "outputs": [],
      "stateMutability": "nonpayable",
      "type": "function"
    },
    {
      "inputs": [
        {
          "internalType": "bytes4",
          "name": "interfaceId",
          "type": "bytes4"
        }
      ],
      "name": "supportsInterface",
      "outputs": [
        {
          "internalType": "bool",
          "name": "",
          "type": "bool"
        }
      ],
      "stateMutability": "view",
      "type": "function"
    },
    {
      "inputs": [],
      "name": "symbol",
      "outputs": [
        {
          "internalType": "string",
          "name": "",
          "type": "string"
        }
      ],
      "stateMutability": "view",
      "type": "function"
    },
    {
      "inputs": [
        {
          "internalType": "uint256",
          "name": "tokenId",
          "type": "uint256"
        }
      ],
      "name": "tokenURI",
      "outputs": [
        {
          "internalType": "string",
          "name": "",
          "type": "string"
        }
      ],
      "stateMutability": "view",
      "type": "function"
    },
    {
      "inputs": [
        {
          "internalType": "address",
          "name": "from",
          "type": "address"
        },
        {
          "internalType": "address",
          "name": "to",
          "type": "address"
        },
        {
          "internalType": "uint256",
          "name": "tokenId",
          "type": "uint256"
        }
      ],
      "name": "transferFrom",
      "outputs": [],
      "stateMutability": "nonpayable",
      "type": "function"
    }
  ],
  "bytecode": "0x608060405260405180610100016040528060d381526020016200562860d3913960099080519060200190620000369291906200142b565b50604051806080016040528060568152602001620056fb60569139600a9080519060200190620000689291906200142b565b506040518061036001604052806040518060400160405280600881526020017f4c6f68746172277300000000000000000000000000000000000000000000000081525081526020016040518060400160405280600781526020017f54686f676573270000000000000000000000000000000000000000000000000081525081526020016040518060400160405280600881526020017f5a697468656b277300000000000000000000000000000000000000000000000081525081526020016040518060400160405280600a81526020017f5572676f6e6f746827730000000000000000000000000000000000000000000081525081526020016040518060400160405280600981526020017f5a65656c76616e2773000000000000000000000000000000000000000000000081525081526020016040518060400160405280600981526020017f5a616b6172756d2773000000000000000000000000000000000000000000000081525081526020016040518060400160405280600781526020017f567567756c73270000000000000000000000000000000000000000000000000081525081526020016040518060400160405280600781526020017f56616e656327730000000000000000000000000000000000000000000000000081525081526020016040518060400160405280600981526020017f5361616c7261632773000000000000000000000000000000000000000000000081525081526020016040518060400160405280600581526020017f52616b277300000000000000000000000000000000000000000000000000000081525081526020016040518060400160405280600781526020017f50656c6f7227730000000000000000000000000000000000000000000000000081525081526020016040518060400160405280600881526020017f4e6164617272277300000000000000000000000000000000000000000000000081525081526020016040518060400160405280600b81526020017f4d797264647261616c277300000000000000000000000000000000000000000081525081526020016040518060400160405280600a81526020017f4d6570686973746f27730000000000000000000000000000000000000000000081525081526020016040518060400160405280600681526020017f4d6172612773000000000000000000000000000000000000000000000000000081525081526020016040518060400160405280600981526020017f4c656d757269612773000000000000000000000000000000000000000000000081525081526020016040518060400160405280600881526020017f4b7572617374277300000000000000000000000000000000000000000000000081525081526020016040518060400160405280600a81526020017f4b65726265726f7327730000000000000000000000000000000000000000000081525081526020016040518060400160405280600881526020017f4b68616c696d277300000000000000000000000000000000000000000000000081525081526020016040518060400160405280600781526020017f497a75616c27730000000000000000000000000000000000000000000000000081525081526020016040518060400160405280600881526020017f4872696d756c277300000000000000000000000000000000000000000000000081525081526020016040518060400160405280600681526020017f486174652773000000000000000000000000000000000000000000000000000081525081526020016040518060400160405280600781526020017f476865656427730000000000000000000000000000000000000000000000000081525081526020016040518060400160405280600781526020017f467572617827730000000000000000000000000000000000000000000000000081525081526020016040518060400160405280600781526020017f456c64657227730000000000000000000000000000000000000000000000000081525081526020016040518060400160405280600781526020017f44726f676127730000000000000000000000000000000000000000000000000081525081526020016040518060400160405280600981526020017f44726f676e616e27730000000000000000000000000000000000000000000000815250815250600b90601b620006be929190620014bc565b50604051806102a001604052806040518060400160405280600681526020017f536d656c6c79000000000000000000000000000000000000000000000000000081525081526020016040518060400160405280600881526020017f48756d6f726f757300000000000000000000000000000000000000000000000081525081526020016040518060400160405280600981526020017f546563686e6963616c000000000000000000000000000000000000000000000081525081526020016040518060400160405280600681526020017f4c6176697368000000000000000000000000000000000000000000000000000081525081526020016040518060400160405280600981526020017f566f6963656c657373000000000000000000000000000000000000000000000081525081526020016040518060400160405280600581526020017f4d61646c7900000000000000000000000000000000000000000000000000000081525081526020016040518060400160405280600581526020017f536361727900000000000000000000000000000000000000000000000000000081525081526020016040518060400160405280600681526020017f5377616e6b79000000000000000000000000000000000000000000000000000081525081526020016040518060400160405280600581526020017f477573747900000000000000000000000000000000000000000000000000000081525081526020016040518060400160405280600a81526020017f41636365737369626c650000000000000000000000000000000000000000000081525081526020016040518060400160405280600a81526020017f426577696c64657265640000000000000000000000000000000000000000000081525081526020016040518060400160405280600a81526020017f456e6368616e74696e670000000000000000000000000000000000000000000081525081526020016040518060400160405280600681526020017f536e6f747479000000000000000000000000000000000000000000000000000081525081526020016040518060400160405280600681526020017f46696c746879000000000000000000000000000000000000000000000000000081525081526020016040518060400160405280600781526020017f466569676e65640000000000000000000000000000000000000000000000000081525081526020016040518060400160405280600581526020017f4c6567616c00000000000000000000000000000000000000000000000000000081525081526020016040518060400160405280600881526020017f427573746c696e6700000000000000000000000000000000000000000000000081525081526020016040518060400160405280600781526020017f5a65616c6f75730000000000000000000000000000000000000000000000000081525081526020016040518060400160405280600a81526020017f53747570656e646f75730000000000000000000000000000000000000000000081525081526020016040518060400160405280600681526020017f537175617265000000000000000000000000000000000000000000000000000081525081526020016040518060400160405280600581526020017f476f646c79000000000000000000000000000000000000000000000000000000815250815250600c90601562000bb292919062001523565b50604051806102c001604052806040518060400160405280600c81526020017f517561727465727374616666000000000000000000000000000000000000000081525081526020016040518060400160405280600581526020017f53776f726400000000000000000000000000000000000000000000000000000081525081526020016040518060400160405280600681526020017f446167676572000000000000000000000000000000000000000000000000000081525081526020016040518060400160405280600481526020017f4d6163650000000000000000000000000000000000000000000000000000000081525081526020016040518060400160405280600381526020017f417865000000000000000000000000000000000000000000000000000000000081525081526020016040518060400160405280600381526020017f426f77000000000000000000000000000000000000000000000000000000000081525081526020016040518060400160405280600581526020017f537461666600000000000000000000000000000000000000000000000000000081525081526020016040518060400160405280600481526020017f57616e640000000000000000000000000000000000000000000000000000000081525081526020016040518060400160405280600781526020017f536365707465720000000000000000000000000000000000000000000000000081525081526020016040518060400160405280600581526020017f537065617200000000000000000000000000000000000000000000000000000081525081526020016040518060400160405280600881526020017f43726f7373626f7700000000000000000000000000000000000000000000000081525081526020016040518060400160405280600681526020017f48616d6d6572000000000000000000000000000000000000000000000000000081525081526020016040518060400160405280600581526020017f466c61696c00000000000000000000000000000000000000000000000000000081525081526020016040518060400160405280600681526020017f476c61697665000000000000000000000000000000000000000000000000000081525081526020016040518060400160405280600781526020017f48616c626572640000000000000000000000000000000000000000000000000081525081526020016040518060400160405280600581526020017f4c616e636500000000000000000000000000000000000000000000000000000081525081526020016040518060400160405280600481526020017f50696b650000000000000000000000000000000000000000000000000000000081525081526020016040518060400160405280600681526020017f526170696572000000000000000000000000000000000000000000000000000081525081526020016040518060400160405280600881526020017f5363696d6974617200000000000000000000000000000000000000000000000081525081526020016040518060400160405280600781526020017f54726964656e740000000000000000000000000000000000000000000000000081525081526020016040518060400160405280600981526020017f57617268616d6d6572000000000000000000000000000000000000000000000081525081526020016040518060400160405280600481526020017f5768697000000000000000000000000000000000000000000000000000000000815250815250600d906016620010e19291906200158a565b506040518060c001604052806040518060400160405280600381526020017f726564000000000000000000000000000000000000000000000000000000000081525081526020016040518060400160405280600781526020017f233038433241380000000000000000000000000000000000000000000000000081525081526020016040518060400160405280600581526020017f626c61636b00000000000000000000000000000000000000000000000000000081525081526020016040518060400160405280600681526020017f79656c6c6f77000000000000000000000000000000000000000000000000000081525081526020016040518060400160405280600481526020017f626c75650000000000000000000000000000000000000000000000000000000081525081526020016040518060400160405280600581526020017f677265656e000000000000000000000000000000000000000000000000000000815250815250600e9060066200125f929190620015f1565b503480156200126d57600080fd5b506040518060400160405280600981526020017f5371756172654e465400000000000000000000000000000000000000000000008152506040518060400160405280600681526020017f53515541524500000000000000000000000000000000000000000000000000008152508160009080519060200190620012f29291906200142b565b5080600190805190602001906200130b9291906200142b565b505050620013596040518060400160405280601e81526020017f54686973206973206d79204e465420636f6e74726163742e20576f61682100008152506200135f60201b620012fe1760201c565b62001812565b620013ff8160405160240162001376919062001726565b6040516020818303038152906040527f41304fac000000000000000000000000000000000000000000000000000000007bffffffffffffffffffffffffffffffffffffffffffffffffffffffff19166020820180517bffffffffffffffffffffffffffffffffffffffffffffffffffffffff83818316178352505050506200140260201b60201c565b50565b60008151905060006a636f6e736f6c652e6c6f679050602083016000808483855afa5050505050565b82805462001439906200179c565b90600052602060002090601f0160209004810192826200145d5760008555620014a9565b82601f106200147857805160ff1916838001178555620014a9565b82800160010185558215620014a9579182015b82811115620014a85782518255916020019190600101906200148b565b5b509050620014b8919062001658565b5090565b82805482825590600052602060002090810192821562001510579160200282015b828111156200150f578251829080519060200190620014fe9291906200142b565b5091602001919060010190620014dd565b5b5090506200151f919062001677565b5090565b82805482825590600052602060002090810192821562001577579160200282015b8281111562001576578251829080519060200190620015659291906200142b565b509160200191906001019062001544565b5b50905062001586919062001677565b5090565b828054828255906000526020600020908101928215620015de579160200282015b82811115620015dd578251829080519060200190620015cc9291906200142b565b5091602001919060010190620015ab565b5b509050620015ed919062001677565b5090565b82805482825590600052602060002090810192821562001645579160200282015b8281111562001644578251829080519060200190620016339291906200142b565b509160200191906001019062001612565b5b50905062001654919062001677565b5090565b5b808211156200167357600081600090555060010162001659565b5090565b5b808211156200169b57600081816200169191906200169f565b5060010162001678565b5090565b508054620016ad906200179c565b6000825580601f10620016c15750620016e2565b601f016020900490600052602060002090810190620016e1919062001658565b5b50565b6000620016f2826200174a565b620016fe818562001755565b93506200171081856020860162001766565b6200171b8162001801565b840191505092915050565b60006020820190508181036000830152620017428184620016e5565b905092915050565b600081519050919050565b600082825260208201905092915050565b60005b838110156200178657808201518184015260208101905062001769565b8381111562001796576000848401525b50505050565b60006002820490506001821680620017b557607f821691505b60208210811415620017cc57620017cb620017d2565b5b50919050565b7f4e487b7100000000000000000000000000000000000000000000000000000000600052602260045260246000fd5b6000601f19601f8301169050919050565b613e0680620018226000396000f3fe608060405234801561001057600080fd5b506004361061012c5760003560e01c80638f75374d116100ad578063c4e41b2211610071578063c4e41b2214610353578063c575757a14610371578063c87b56dd146103a1578063de9d132f146103d1578063e985e9c5146103db5761012c565b80638f75374d146102c357806395d89b41146102cd578063a22cb465146102eb578063b187301f14610307578063b88d4fde146103375761012c565b80632de38d68116100f45780632de38d68146101e757806342842e0e14610217578063514dc8c6146102335780636352211e1461026357806370a08231146102935761012c565b806301ffc9a71461013157806306fdde0314610161578063081812fc1461017f578063095ea7b3146101af57806323b872dd146101cb575b600080fd5b61014b6004803603810190610146919061272a565b61040b565b6040516101589190612f34565b60405180910390f35b6101696104ed565b6040516101769190612f4f565b60405180910390f35b6101996004803603810190610194919061277c565b61057f565b6040516101a69190612ea4565b60405180910390f35b6101c960048036038101906101c491906126ee565b610604565b005b6101e560048036038101906101e091906125e8565b61071c565b005b61020160048036038101906101fc919061277c565b61077c565b60405161020e9190612f4f565b60405180910390f35b610231600480360381019061022c91906125e8565b61089a565b005b61024d6004803603810190610248919061277c565b6108ba565b60405161025a9190612f4f565b60405180910390f35b61027d6004803603810190610278919061277c565b6109d8565b60405161028a9190612ea4565b60405180910390f35b6102ad60048036038101906102a89190612583565b610a8a565b6040516102ba91906131cf565b60405180910390f35b6102cb610b42565b005b6102d5610b5c565b6040516102e29190612f4f565b60405180910390f35b610305600480360381019061030091906126b2565b610bee565b005b610321600480360381019061031c919061277c565b610c04565b60405161032e9190612f4f565b60405180910390f35b610351600480360381019061034c9190612637565b610d22565b005b61035b610d84565b60405161036891906131cf565b60405180910390f35b61038b6004803603810190610386919061277c565b610d8e565b6040516103989190612f4f565b60405180910390f35b6103bb60048036038101906103b6919061277c565b610eac565b6040516103c89190612f4f565b60405180910390f35b6103d9610ffe565b005b6103f560048036038101906103f091906125ac565b61126a565b6040516104029190612f34565b60405180910390f35b60007f80ac58cd000000000000000000000000000000000000000000000000000000007bffffffffffffffffffffffffffffffffffffffffffffffffffffffff1916827bffffffffffffffffffffffffffffffffffffffffffffffffffffffff191614806104d657507f5b5e139f000000000000000000000000000000000000000000000000000000007bffffffffffffffffffffffffffffffffffffffffffffffffffffffff1916827bffffffffffffffffffffffffffffffffffffffffffffffffffffffff1916145b806104e657506104e582611397565b5b9050919050565b6060600080546104fc90613463565b80601f016020809104026020016040519081016040528092919081815260200182805461052890613463565b80156105755780601f1061054a57610100808354040283529160200191610575565b820191906000526020600020905b81548152906001019060200180831161055857829003601f168201915b5050505050905090565b600061058a82611401565b6105c9576040517f08c379a00000000000000000000000000000000000000000000000000000000081526004016105c09061314f565b60405180910390fd5b6004600083815260200190815260200160002060009054906101000a900473ffffffffffffffffffffffffffffffffffffffff169050919050565b600061060f826109d8565b90508073ffffffffffffffffffffffffffffffffffffffff168373ffffffffffffffffffffffffffffffffffffffff161415610680576040517f08c379a00000000000000000000000000000000000000000000000000000000081526004016106779061318f565b60405180910390fd5b8073ffffffffffffffffffffffffffffffffffffffff1661069f61146d565b73ffffffffffffffffffffffffffffffffffffffff1614806106ce57506106cd816106c861146d565b61126a565b5b61070d576040517f08c379a00000000000000000000000000000000000000000000000000000000081526004016107049061308f565b60405180910390fd5b6107178383611475565b505050565b61072d61072761146d565b8261152e565b61076c576040517f08c379a0000000000000000000000000000000000000000000000000000000008152600401610763906131af565b60405180910390fd5b61077783838361160c565b505050565b606060006107b061078c84611873565b60405160200161079c9190612e3e565b604051602081830303815290604052611a20565b9050600b80549050816107c3919061350f565b9050600b81815481106107ff577f4e487b7100000000000000000000000000000000000000000000000000000000600052603260045260246000fd5b90600052602060002001805461081490613463565b80601f016020809104026020016040519081016040528092919081815260200182805461084090613463565b801561088d5780601f106108625761010080835404028352916020019161088d565b820191906000526020600020905b81548152906001019060200180831161087057829003601f168201915b5050505050915050919050565b6108b583838360405180602001604052806000815250610d22565b505050565b606060006108ee6108ca84611873565b6040516020016108da9190612e82565b604051602081830303815290604052611a20565b9050600e8054905081610901919061350f565b9050600e818154811061093d577f4e487b7100000000000000000000000000000000000000000000000000000000600052603260045260246000fd5b90600052602060002001805461095290613463565b80601f016020809104026020016040519081016040528092919081815260200182805461097e90613463565b80156109cb5780601f106109a0576101008083540402835291602001916109cb565b820191906000526020600020905b8154815290600101906020018083116109ae57829003601f168201915b5050505050915050919050565b6000806002600084815260200190815260200160002060009054906101000a900473ffffffffffffffffffffffffffffffffffffffff169050600073ffffffffffffffffffffffffffffffffffffffff168173ffffffffffffffffffffffffffffffffffffffff161415610a81576040517f08c379a0000000000000000000000000000000000000000000000000000000008152600401610a78906130cf565b60405180910390fd5b80915050919050565b60008073ffffffffffffffffffffffffffffffffffffffff168273ffffffffffffffffffffffffffffffffffffffff161415610afb576040517f08c379a0000000000000000000000000000000000000000000000000000000008152600401610af2906130af565b60405180910390fd5b600360008373ffffffffffffffffffffffffffffffffffffffff1673ffffffffffffffffffffffffffffffffffffffff168152602001908152602001600020549050919050565b60086000815480929190610b55906134c6565b9190505550565b606060018054610b6b90613463565b80601f0160208091040260200160405190810160405280929190818152602001828054610b9790613463565b8015610be45780601f10610bb957610100808354040283529160200191610be4565b820191906000526020600020905b815481529060010190602001808311610bc757829003601f168201915b5050505050905090565b610c00610bf961146d565b8383611a53565b5050565b60606000610c38610c1484611873565b604051602001610c249190612dd7565b604051602081830303815290604052611a20565b9050600c8054905081610c4b919061350f565b9050600c8181548110610c87577f4e487b7100000000000000000000000000000000000000000000000000000000600052603260045260246000fd5b906000526020600020018054610c9c90613463565b80601f0160208091040260200160405190810160405280929190818152602001828054610cc890613463565b8015610d155780601f10610cea57610100808354040283529160200191610d15565b820191906000526020600020905b815481529060010190602001808311610cf857829003601f168201915b5050505050915050919050565b610d33610d2d61146d565b8361152e565b610d72576040517f08c379a0000000000000000000000000000000000000000000000000000000008152600401610d69906131af565b60405180910390fd5b610d7e84848484611bc0565b50505050565b6000600854905090565b60606000610dc2610d9e84611873565b604051602001610dae9190612db5565b604051602081830303815290604052611a20565b9050600d8054905081610dd5919061350f565b9050600d8181548110610e11577f4e487b7100000000000000000000000000000000000000000000000000000000600052603260045260246000fd5b906000526020600020018054610e2690613463565b80601f0160208091040260200160405190810160405280929190818152602001828054610e5290613463565b8015610e9f5780601f10610e7457610100808354040283529160200191610e9f565b820191906000526020600020905b815481529060010190602001808311610e8257829003601f168201915b5050505050915050919050565b6060610eb782611401565b610ef6576040517f08c379a0000000000000000000000000000000000000000000000000000000008152600401610eed9061312f565b60405180910390fd5b6000600660008481526020019081526020016000208054610f1690613463565b80601f0160208091040260200160405190810160405280929190818152602001828054610f4290613463565b8015610f8f5780601f10610f6457610100808354040283529160200191610f8f565b820191906000526020600020905b815481529060010190602001808311610f7257829003601f168201915b505050505090506000610fa0611c1c565b9050600081511415610fb6578192505050610ff9565b600082511115610feb578082604051602001610fd3929190612cdf565b60405160208183030381529060405292505050610ff9565b610ff484611c33565b925050505b919050565b600061100a6007611cda565b905060006110178261077c565b9050600061102483610c04565b9050600061103184610d8e565b9050600083838360405160200161104a93929190612d03565b60405160208183030381529060405290506000611066866108ba565b90506000600982600a856040516020016110839493929190612d4a565b604051602081830303815290604052905060006110c8846110a384611ce8565b6040516020016110b4929190612df9565b604051602081830303815290604052611ce8565b90506000816040516020016110dd9190612e60565b604051602081830303815290604052905061112c6040518060400160405280601581526020017f0a2d2d2d2d2d2d2d2d2d2d2d2d2d2d2d2d2d2d2d2d00000000000000000000008152506112fe565b611154816040516020016111409190612d93565b6040516020818303038152906040526112fe565b6111926040518060400160405280601581526020017f2d2d2d2d2d2d2d2d2d2d2d2d2d2d2d2d2d2d2d2d0a00000000000000000000008152506112fe565b61119a610b42565b60326111a4610d84565b11156111e5576040517f08c379a00000000000000000000000000000000000000000000000000000000081526004016111dc90612faf565b60405180910390fd5b6111ef338a611ea6565b6111f98982611ec4565b6112036007611f38565b611226604051806060016040528060258152602001613d6c602591398a33611f4e565b7febb98688741ffa4c7589bf325de30cf7becb63de567842e1ccdb6cb949fdc82c338a604051611257929190612f0b565b60405180910390a1505050505050505050565b6000600560008473ffffffffffffffffffffffffffffffffffffffff1673ffffffffffffffffffffffffffffffffffffffff16815260200190815260200160002060008373ffffffffffffffffffffffffffffffffffffffff1673ffffffffffffffffffffffffffffffffffffffff16815260200190815260200160002060009054906101000a900460ff16905092915050565b611394816040516024016113129190612f4f565b6040516020818303038152906040527f41304fac000000000000000000000000000000000000000000000000000000007bffffffffffffffffffffffffffffffffffffffffffffffffffffffff19166020820180517bffffffffffffffffffffffffffffffffffffffffffffffffffffffff8381831617835250505050611fed565b50565b60007f01ffc9a7000000000000000000000000000000000000000000000000000000007bffffffffffffffffffffffffffffffffffffffffffffffffffffffff1916827bffffffffffffffffffffffffffffffffffffffffffffffffffffffff1916149050919050565b60008073ffffffffffffffffffffffffffffffffffffffff166002600084815260200190815260200160002060009054906101000a900473ffffffffffffffffffffffffffffffffffffffff1673ffffffffffffffffffffffffffffffffffffffff1614159050919050565b600033905090565b816004600083815260200190815260200160002060006101000a81548173ffffffffffffffffffffffffffffffffffffffff021916908373ffffffffffffffffffffffffffffffffffffffff160217905550808273ffffffffffffffffffffffffffffffffffffffff166114e8836109d8565b73ffffffffffffffffffffffffffffffffffffffff167f8c5be1e5ebec7d5bd14f71427d1e84f3dd0314c0f7b2291e5b200ac8c7c3b92560405160405180910390a45050565b600061153982611401565b611578576040517f08c379a000000000000000000000000000000000000000000000000000000000815260040161156f9061306f565b60405180910390fd5b6000611583836109d8565b90508073ffffffffffffffffffffffffffffffffffffffff168473ffffffffffffffffffffffffffffffffffffffff1614806115f257508373ffffffffffffffffffffffffffffffffffffffff166115da8461057f565b73ffffffffffffffffffffffffffffffffffffffff16145b806116035750611602818561126a565b5b91505092915050565b8273ffffffffffffffffffffffffffffffffffffffff1661162c826109d8565b73ffffffffffffffffffffffffffffffffffffffff1614611682576040517f08c379a000000000000000000000000000000000000000000000000000000000815260040161167990612fef565b60405180910390fd5b600073ffffffffffffffffffffffffffffffffffffffff168273ffffffffffffffffffffffffffffffffffffffff1614156116f2576040517f08c379a00000000000000000000000000000000000000000000000000000000081526004016116e99061302f565b60405180910390fd5b6116fd838383612016565b611708600082611475565b6001600360008573ffffffffffffffffffffffffffffffffffffffff1673ffffffffffffffffffffffffffffffffffffffff16815260200190815260200160002060008282546117589190613379565b925050819055506001600360008473ffffffffffffffffffffffffffffffffffffffff1673ffffffffffffffffffffffffffffffffffffffff16815260200190815260200160002060008282546117af9190613298565b92505081905550816002600083815260200190815260200160002060006101000a81548173ffffffffffffffffffffffffffffffffffffffff021916908373ffffffffffffffffffffffffffffffffffffffff160217905550808273ffffffffffffffffffffffffffffffffffffffff168473ffffffffffffffffffffffffffffffffffffffff167fddf252ad1be2c89b69c2b068fc378daa952ba7f163c4a11628f55a4df523b3ef60405160405180910390a461186e83838361201b565b505050565b606060008214156118bb576040518060400160405280600181526020017f30000000000000000000000000000000000000000000000000000000000000008152509050611a1b565b600082905060005b600082146118ed5780806118d6906134c6565b915050600a826118e691906132ee565b91506118c3565b60008167ffffffffffffffff81111561192f577f4e487b7100000000000000000000000000000000000000000000000000000000600052604160045260246000fd5b6040519080825280601f01601f1916602001820160405280156119615781602001600182028036833780820191505090505b5090505b60008514611a145760018261197a9190613379565b9150600a85611989919061350f565b60306119959190613298565b60f81b8183815181106119d1577f4e487b7100000000000000000000000000000000000000000000000000000000600052603260045260246000fd5b60200101907effffffffffffffffffffffffffffffffffffffffffffffffffffffffffffff1916908160001a905350600a85611a0d91906132ee565b9450611965565b8093505050505b919050565b600081604051602001611a339190612cc8565b6040516020818303038152906040528051906020012060001c9050919050565b8173ffffffffffffffffffffffffffffffffffffffff168373ffffffffffffffffffffffffffffffffffffffff161415611ac2576040517f08c379a0000000000000000000000000000000000000000000000000000000008152600401611ab99061304f565b60405180910390fd5b80600560008573ffffffffffffffffffffffffffffffffffffffff1673ffffffffffffffffffffffffffffffffffffffff16815260200190815260200160002060008473ffffffffffffffffffffffffffffffffffffffff1673ffffffffffffffffffffffffffffffffffffffff16815260200190815260200160002060006101000a81548160ff0219169083151502179055508173ffffffffffffffffffffffffffffffffffffffff168373ffffffffffffffffffffffffffffffffffffffff167f17307eab39ab6107e8899845ad3d59bd9653f200f220920489ca2b5937696c3183604051611bb39190612f34565b60405180910390a3505050565b611bcb84848461160c565b611bd784848484612020565b611c16576040517f08c379a0000000000000000000000000000000000000000000000000000000008152600401611c0d90612fcf565b60405180910390fd5b50505050565b606060405180602001604052806000815250905090565b6060611c3e82611401565b611c7d576040517f08c379a0000000000000000000000000000000000000000000000000000000008152600401611c749061316f565b60405180910390fd5b6000611c87611c1c565b90506000815111611ca75760405180602001604052806000815250611cd2565b80611cb184611873565b604051602001611cc2929190612cdf565b6040516020818303038152906040525b915050919050565b600081600001549050919050565b60606000825190506000811415611d115760405180602001604052806000815250915050611ea1565b60006003600283611d229190613298565b611d2c91906132ee565b6004611d38919061331f565b90506000602082611d499190613298565b67ffffffffffffffff811115611d88577f4e487b7100000000000000000000000000000000000000000000000000000000600052604160045260246000fd5b6040519080825280601f01601f191660200182016040528015611dba5781602001600182028036833780820191505090505b5090506000604051806060016040528060408152602001613d91604091399050600181016020830160005b86811015611e5e5760038101905062ffffff818a015116603f8160121c168401518060081b905060ff603f83600c1c1686015116810190508060081b905060ff603f8360061c1686015116810190508060081b905060ff603f831686015116810190508060e01b90508084526004840193505050611de5565b506003860660018114611e785760028114611e8857611e93565b613d3d60f01b6002830352611e93565b603d60f81b60018303525b508484525050819450505050505b919050565b611ec08282604051806020016040528060008152506121b7565b5050565b611ecd82611401565b611f0c576040517f08c379a0000000000000000000000000000000000000000000000000000000008152600401611f03906130ef565b60405180910390fd5b80600660008481526020019081526020016000209080519060200190611f3392919061240f565b505050565b6001816000016000828254019250508190555050565b611fe8838383604051602401611f6693929190612f71565b6040516020818303038152906040527fe3849f79000000000000000000000000000000000000000000000000000000007bffffffffffffffffffffffffffffffffffffffffffffffffffffffff19166020820180517bffffffffffffffffffffffffffffffffffffffffffffffffffffffff8381831617835250505050611fed565b505050565b60008151905060006a636f6e736f6c652e6c6f679050602083016000808483855afa5050505050565b505050565b505050565b60006120418473ffffffffffffffffffffffffffffffffffffffff16612212565b156121aa578373ffffffffffffffffffffffffffffffffffffffff1663150b7a0261206a61146d565b8786866040518563ffffffff1660e01b815260040161208c9493929190612ebf565b602060405180830381600087803b1580156120a657600080fd5b505af19250505080156120d757506040513d601f19601f820116820180604052508101906120d49190612753565b60015b61215a573d8060008114612107576040519150601f19603f3d011682016040523d82523d6000602084013e61210c565b606091505b50600081511415612152576040517f08c379a000000000000000000000000000000000000000000000000000000000815260040161214990612fcf565b60405180910390fd5b805181602001fd5b63150b7a0260e01b7bffffffffffffffffffffffffffffffffffffffffffffffffffffffff1916817bffffffffffffffffffffffffffffffffffffffffffffffffffffffff1916149150506121af565b600190505b949350505050565b6121c18383612235565b6121ce6000848484612020565b61220d576040517f08c379a000000000000000000000000000000000000000000000000000000000815260040161220490612fcf565b60405180910390fd5b505050565b6000808273ffffffffffffffffffffffffffffffffffffffff163b119050919050565b600073ffffffffffffffffffffffffffffffffffffffff168273ffffffffffffffffffffffffffffffffffffffff1614156122a5576040517f08c379a000000000000000000000000000000000000000000000000000000000815260040161229c9061310f565b60405180910390fd5b6122ae81611401565b156122ee576040517f08c379a00000000000000000000000000000000000000000000000000000000081526004016122e59061300f565b60405180910390fd5b6122fa60008383612016565b6001600360008473ffffffffffffffffffffffffffffffffffffffff1673ffffffffffffffffffffffffffffffffffffffff168152602001908152602001600020600082825461234a9190613298565b92505081905550816002600083815260200190815260200160002060006101000a81548173ffffffffffffffffffffffffffffffffffffffff021916908373ffffffffffffffffffffffffffffffffffffffff160217905550808273ffffffffffffffffffffffffffffffffffffffff16600073ffffffffffffffffffffffffffffffffffffffff167fddf252ad1be2c89b69c2b068fc378daa952ba7f163c4a11628f55a4df523b3ef60405160405180910390a461240b6000838361201b565b5050565b82805461241b90613463565b90600052602060002090601f01602090048101928261243d5760008555612484565b82601f1061245657805160ff1916838001178555612484565b82800160010185558215612484579182015b82811115612483578251825591602001919060010190612468565b5b5090506124919190612495565b5090565b5b808211156124ae576000816000905550600101612496565b5090565b60006124c56124c08461320f565b6131ea565b9050828152602081018484840111156124dd57600080fd5b6124e8848285613421565b509392505050565b6000813590506124ff81613d0f565b92915050565b60008135905061251481613d26565b92915050565b60008135905061252981613d3d565b92915050565b60008151905061253e81613d3d565b92915050565b600082601f83011261255557600080fd5b81356125658482602086016124b2565b91505092915050565b60008135905061257d81613d54565b92915050565b60006020828403121561259557600080fd5b60006125a3848285016124f0565b91505092915050565b600080604083850312156125bf57600080fd5b60006125cd858286016124f0565b92505060206125de858286016124f0565b9150509250929050565b6000806000606084860312156125fd57600080fd5b600061260b868287016124f0565b935050602061261c868287016124f0565b925050604061262d8682870161256e565b9150509250925092565b6000806000806080858703121561264d57600080fd5b600061265b878288016124f0565b945050602061266c878288016124f0565b935050604061267d8782880161256e565b925050606085013567ffffffffffffffff81111561269a57600080fd5b6126a687828801612544565b91505092959194509250565b600080604083850312156126c557600080fd5b60006126d3858286016124f0565b92505060206126e485828601612505565b9150509250929050565b6000806040838503121561270157600080fd5b600061270f858286016124f0565b92505060206127208582860161256e565b9150509250929050565b60006020828403121561273c57600080fd5b600061274a8482850161251a565b91505092915050565b60006020828403121561276557600080fd5b60006127738482850161252f565b91505092915050565b60006020828403121561278e57600080fd5b600061279c8482850161256e565b91505092915050565b6127ae816133ad565b82525050565b6127bd816133bf565b82525050565b60006127ce82613255565b6127d8818561326b565b93506127e8818560208601613430565b6127f1816135fc565b840191505092915050565b600061280782613260565b612811818561327c565b9350612821818560208601613430565b61282a816135fc565b840191505092915050565b600061284082613260565b61284a818561328d565b935061285a818560208601613430565b80840191505092915050565b6000815461287381613463565b61287d818661328d565b9450600182166000811461289857600181146128a9576128dc565b60ff198316865281860193506128dc565b6128b285613240565b60005b838110156128d4578154818901526001820191506020810190506128b5565b838801955050505b50505092915050565b60006128f260258361328d565b91506128fd8261360d565b602582019050919050565b600061291560198361327c565b91506129208261365c565b602082019050919050565b600061293860328361327c565b915061294382613685565b604082019050919050565b600061295b60258361327c565b9150612966826136d4565b604082019050919050565b600061297e601c8361327c565b915061298982613723565b602082019050919050565b60006129a1600a8361328d565b91506129ac8261374c565b600a82019050919050565b60006129c460248361327c565b91506129cf82613775565b604082019050919050565b60006129e760198361327c565b91506129f2826137c4565b602082019050919050565b6000612a0a60638361328d565b9150612a15826137ed565b606382019050919050565b6000612a2d600b8361328d565b9150612a3882613888565b600b82019050919050565b6000612a50602c8361327c565b9150612a5b826138b1565b604082019050919050565b6000612a73600d8361328d565b9150612a7e82613900565b600d82019050919050565b6000612a9660018361328d565b9150612aa182613929565b600182019050919050565b6000612ab960388361327c565b9150612ac482613952565b604082019050919050565b6000612adc602a8361327c565b9150612ae7826139a1565b604082019050919050565b6000612aff60298361327c565b9150612b0a826139f0565b604082019050919050565b6000612b22602e8361327c565b9150612b2d82613a3f565b604082019050919050565b6000612b4560028361328d565b9150612b5082613a8e565b600282019050919050565b6000612b6860208361327c565b9150612b7382613ab7565b602082019050919050565b6000612b8b60318361327c565b9150612b9682613ae0565b604082019050919050565b6000612bae602c8361327c565b9150612bb982613b2f565b604082019050919050565b6000612bd1602f8361327c565b9150612bdc82613b7e565b604082019050919050565b6000612bf4600a8361328d565b9150612bff82613bcd565b600a82019050919050565b6000612c1760218361327c565b9150612c2282613bf6565b604082019050919050565b6000612c3a600a8361328d565b9150612c4582613c45565b600a82019050919050565b6000612c5d601d8361328d565b9150612c6882613c6e565b601d82019050919050565b6000612c8060318361327c565b9150612c8b82613c97565b604082019050919050565b6000612ca360058361328d565b9150612cae82613ce6565b600582019050919050565b612cc281613417565b82525050565b6000612cd48284612835565b915081905092915050565b6000612ceb8285612835565b9150612cf78284612835565b91508190509392505050565b6000612d0f8286612835565b9150612d1a82612a89565b9150612d268285612835565b9150612d3182612a89565b9150612d3d8284612835565b9150819050949350505050565b6000612d568287612866565b9150612d628286612835565b9150612d6e8285612866565b9150612d7a8284612835565b9150612d8582612a66565b915081905095945050505050565b6000612d9e826128e5565b9150612daa8284612835565b915081905092915050565b6000612dc082612994565b9150612dcc8284612835565b915081905092915050565b6000612de282612a20565b9150612dee8284612835565b915081905092915050565b6000612e0482612be7565b9150612e108285612835565b9150612e1b826129fd565b9150612e278284612835565b9150612e3282612b38565b91508190509392505050565b6000612e4982612c2d565b9150612e558284612835565b915081905092915050565b6000612e6b82612c50565b9150612e778284612835565b915081905092915050565b6000612e8d82612c96565b9150612e998284612835565b915081905092915050565b6000602082019050612eb960008301846127a5565b92915050565b6000608082019050612ed460008301876127a5565b612ee160208301866127a5565b612eee6040830185612cb9565b8181036060830152612f0081846127c3565b905095945050505050565b6000604082019050612f2060008301856127a5565b612f2d6020830184612cb9565b9392505050565b6000602082019050612f4960008301846127b4565b92915050565b60006020820190508181036000830152612f6981846127fc565b905092915050565b60006060820190508181036000830152612f8b81866127fc565b9050612f9a6020830185612cb9565b612fa760408301846127a5565b949350505050565b60006020820190508181036000830152612fc881612908565b9050919050565b60006020820190508181036000830152612fe88161292b565b9050919050565b600060208201905081810360008301526130088161294e565b9050919050565b6000602082019050818103600083015261302881612971565b9050919050565b60006020820190508181036000830152613048816129b7565b9050919050565b60006020820190508181036000830152613068816129da565b9050919050565b6000602082019050818103600083015261308881612a43565b9050919050565b600060208201905081810360008301526130a881612aac565b9050919050565b600060208201905081810360008301526130c881612acf565b9050919050565b600060208201905081810360008301526130e881612af2565b9050919050565b6000602082019050818103600083015261310881612b15565b9050919050565b6000602082019050818103600083015261312881612b5b565b9050919050565b6000602082019050818103600083015261314881612b7e565b9050919050565b6000602082019050818103600083015261316881612ba1565b9050919050565b6000602082019050818103600083015261318881612bc4565b9050919050565b600060208201905081810360008301526131a881612c0a565b9050919050565b600060208201905081810360008301526131c881612c73565b9050919050565b60006020820190506131e46000830184612cb9565b92915050565b60006131f4613205565b90506132008282613495565b919050565b6000604051905090565b600067ffffffffffffffff82111561322a576132296135cd565b5b613233826135fc565b9050602081019050919050565b60008190508160005260206000209050919050565b600081519050919050565b600081519050919050565b600082825260208201905092915050565b600082825260208201905092915050565b600081905092915050565b60006132a382613417565b91506132ae83613417565b9250827fffffffffffffffffffffffffffffffffffffffffffffffffffffffffffffffff038211156132e3576132e2613540565b5b828201905092915050565b60006132f982613417565b915061330483613417565b9250826133145761331361356f565b5b828204905092915050565b600061332a82613417565b915061333583613417565b9250817fffffffffffffffffffffffffffffffffffffffffffffffffffffffffffffffff048311821515161561336e5761336d613540565b5b828202905092915050565b600061338482613417565b915061338f83613417565b9250828210156133a2576133a1613540565b5b828203905092915050565b60006133b8826133f7565b9050919050565b60008115159050919050565b60007fffffffff0000000000000000000000000000000000000000000000000000000082169050919050565b600073ffffffffffffffffffffffffffffffffffffffff82169050919050565b6000819050919050565b82818337600083830152505050565b60005b8381101561344e578082015181840152602081019050613433565b8381111561345d576000848401525b50505050565b6000600282049050600182168061347b57607f821691505b6020821081141561348f5761348e61359e565b5b50919050565b61349e826135fc565b810181811067ffffffffffffffff821117156134bd576134bc6135cd565b5b80604052505050565b60006134d182613417565b91507fffffffffffffffffffffffffffffffffffffffffffffffffffffffffffffffff82141561350457613503613540565b5b600182019050919050565b600061351a82613417565b915061352583613417565b9250826135355761353461356f565b5b828206905092915050565b7f4e487b7100000000000000000000000000000000000000000000000000000000600052601160045260246000fd5b7f4e487b7100000000000000000000000000000000000000000000000000000000600052601260045260246000fd5b7f4e487b7100000000000000000000000000000000000000000000000000000000600052602260045260246000fd5b7f4e487b7100000000000000000000000000000000000000000000000000000000600052604160045260246000fd5b6000601f19601f8301169050919050565b7f68747470733a2f2f6e6674707265766965772e30786465762e636f6465732f3f60008201527f636f64653d000000000000000000000000000000000000000000000000000000602082015250565b7f48617320657863656564656420737570706c79206c696d697400000000000000600082015250565b7f4552433732313a207472616e7366657220746f206e6f6e20455243373231526560008201527f63656976657220696d706c656d656e7465720000000000000000000000000000602082015250565b7f4552433732313a207472616e736665722066726f6d20696e636f72726563742060008201527f6f776e6572000000000000000000000000000000000000000000000000000000602082015250565b7f4552433732313a20746f6b656e20616c7265616479206d696e74656400000000600082015250565b7f54484952445f574f524400000000000000000000000000000000000000000000600082015250565b7f4552433732313a207472616e7366657220746f20746865207a65726f2061646460008201527f7265737300000000000000000000000000000000000000000000000000000000602082015250565b7f4552433732313a20617070726f766520746f2063616c6c657200000000000000600082015250565b7f222c20226465736372697074696f6e223a20224120686967686c79206163636c60008201527f61696d656420636f6c6c656374696f6e206f6620737175617265732e222c202260208201527f696d616765223a2022646174613a696d6167652f7376672b786d6c3b6261736560408201527f36342c0000000000000000000000000000000000000000000000000000000000606082015250565b7f5345434f4e445f574f5244000000000000000000000000000000000000000000600082015250565b7f4552433732313a206f70657261746f7220717565727920666f72206e6f6e657860008201527f697374656e7420746f6b656e0000000000000000000000000000000000000000602082015250565b7f3c2f746578743e3c2f7376673e00000000000000000000000000000000000000600082015250565b7f2000000000000000000000000000000000000000000000000000000000000000600082015250565b7f4552433732313a20617070726f76652063616c6c6572206973206e6f74206f7760008201527f6e6572206e6f7220617070726f76656420666f7220616c6c0000000000000000602082015250565b7f4552433732313a2062616c616e636520717565727920666f7220746865207a6560008201527f726f206164647265737300000000000000000000000000000000000000000000602082015250565b7f4552433732313a206f776e657220717565727920666f72206e6f6e657869737460008201527f656e7420746f6b656e0000000000000000000000000000000000000000000000602082015250565b7f45524337323155524953746f726167653a2055524920736574206f66206e6f6e60008201527f6578697374656e7420746f6b656e000000000000000000000000000000000000602082015250565b7f227d000000000000000000000000000000000000000000000000000000000000600082015250565b7f4552433732313a206d696e7420746f20746865207a65726f2061646472657373600082015250565b7f45524337323155524953746f726167653a2055524920717565727920666f722060008201527f6e6f6e6578697374656e7420746f6b656e000000000000000000000000000000602082015250565b7f4552433732313a20617070726f76656420717565727920666f72206e6f6e657860008201527f697374656e7420746f6b656e0000000000000000000000000000000000000000602082015250565b7f4552433732314d657461646174613a2055524920717565727920666f72206e6f60008201527f6e6578697374656e7420746f6b656e0000000000000000000000000000000000602082015250565b7f7b226e616d65223a202200000000000000000000000000000000000000000000600082015250565b7f4552433732313a20617070726f76616c20746f2063757272656e74206f776e6560008201527f7200000000000000000000000000000000000000000000000000000000000000602082015250565b7f46495253545f574f524400000000000000000000000000000000000000000000600082015250565b7f646174613a6170706c69636174696f6e2f6a736f6e3b6261736536342c000000600082015250565b7f4552433732313a207472616e736665722063616c6c6572206973206e6f74206f60008201527f776e6572206e6f7220617070726f766564000000000000000000000000000000602082015250565b7f434f4c4f52000000000000000000000000000000000000000000000000000000600082015250565b613d18816133ad565b8114613d2357600080fd5b50565b613d2f816133bf565b8114613d3a57600080fd5b50565b613d46816133cb565b8114613d5157600080fd5b50565b613d5d81613417565b8114613d6857600080fd5b5056fe416e204e465420772f20494420257320686173206265656e206d696e74656420746f2025734142434445464748494a4b4c4d4e4f505152535455565758595a6162636465666768696a6b6c6d6e6f707172737475767778797a303132333435363738392b2fa26469706673582212206446a9bbff20b712fb821b9a23a894b3536ad9858ae3c2b27f526fa12787807364736f6c634300080100333c73766720786d6c6e733d27687474703a2f2f7777772e77332e6f72672f323030302f73766727207072657365727665417370656374526174696f3d27784d696e594d696e206d656574272076696577426f783d273020302033353020333530273e3c7374796c653e2e62617365207b2066696c6c3a2077686974653b20666f6e742d66616d696c793a2073657269663b20666f6e742d73697a653a20323470783b207d3c2f7374796c653e3c726563742077696474683d273130302527206865696768743d2731303025272066696c6c3d27272f3e3c7465787420783d273530252720793d273530252720636c6173733d27626173652720646f6d696e616e742d626173656c696e653d276d6964646c652720746578742d616e63686f723d276d6964646c65273e",
  "linkReferences": {},
  "deployedLinkReferences": {}
}