{
  "_format": "hh-sol-artifact-1",
  "contractName": "MyEpicNFT",
  "sourceName": "contracts/MyEpicNFT.sol",
  "abi": [
    {
      "inputs": [],
      "stateMutability": "nonpayable",
      "type": "constructor"
    },
    {
      "anonymous": false,
      "inputs": [
        {
          "indexed": true,
          "internalType": "address",
          "name": "owner",
          "type": "address"
        },
        {
          "indexed": true,
          "internalType": "address",
          "name": "approved",
          "type": "address"
        },
        {
          "indexed": true,
          "internalType": "uint256",
          "name": "tokenId",
          "type": "uint256"
        }
      ],
      "name": "Approval",
      "type": "event"
    },
    {
      "anonymous": false,
      "inputs": [
        {
          "indexed": true,
          "internalType": "address",
          "name": "owner",
          "type": "address"
        },
        {
          "indexed": true,
          "internalType": "address",
          "name": "operator",
          "type": "address"
        },
        {
          "indexed": false,
          "internalType": "bool",
          "name": "approved",
          "type": "bool"
        }
      ],
      "name": "ApprovalForAll",
      "type": "event"
    },
    {
      "anonymous": false,
      "inputs": [
        {
          "indexed": false,
          "internalType": "address",
          "name": "sender",
          "type": "address"
        },
        {
          "indexed": false,
          "internalType": "uint256",
          "name": "tokenId",
          "type": "uint256"
        },
        {
          "indexed": false,
          "internalType": "string",
          "name": "svg",
          "type": "string"
        }
      ],
      "name": "NewEpicNFTMinted",
      "type": "event"
    },
    {
      "anonymous": false,
      "inputs": [
        {
          "indexed": true,
          "internalType": "address",
          "name": "from",
          "type": "address"
        },
        {
          "indexed": true,
          "internalType": "address",
          "name": "to",
          "type": "address"
        },
        {
          "indexed": true,
          "internalType": "uint256",
          "name": "tokenId",
          "type": "uint256"
        }
      ],
      "name": "Transfer",
      "type": "event"
    },
    {
      "inputs": [
        {
          "internalType": "address",
          "name": "to",
          "type": "address"
        },
        {
          "internalType": "uint256",
          "name": "tokenId",
          "type": "uint256"
        }
      ],
      "name": "approve",
      "outputs": [],
      "stateMutability": "nonpayable",
      "type": "function"
    },
    {
      "inputs": [
        {
          "internalType": "address",
          "name": "owner",
          "type": "address"
        }
      ],
      "name": "balanceOf",
      "outputs": [
        {
          "internalType": "uint256",
          "name": "",
          "type": "uint256"
        }
      ],
      "stateMutability": "view",
      "type": "function"
    },
    {
      "inputs": [
        {
          "internalType": "uint256",
          "name": "tokenId",
          "type": "uint256"
        }
      ],
      "name": "getApproved",
      "outputs": [
        {
          "internalType": "address",
          "name": "",
          "type": "address"
        }
      ],
      "stateMutability": "view",
      "type": "function"
    },
    {
      "inputs": [],
      "name": "getTotalSupply",
      "outputs": [
        {
          "internalType": "uint256",
          "name": "",
          "type": "uint256"
        }
      ],
      "stateMutability": "view",
      "type": "function"
    },
    {
      "inputs": [],
      "name": "incrementSupply",
      "outputs": [],
      "stateMutability": "nonpayable",
      "type": "function"
    },
    {
      "inputs": [
        {
          "internalType": "address",
          "name": "owner",
          "type": "address"
        },
        {
          "internalType": "address",
          "name": "operator",
          "type": "address"
        }
      ],
      "name": "isApprovedForAll",
      "outputs": [
        {
          "internalType": "bool",
          "name": "",
          "type": "bool"
        }
      ],
      "stateMutability": "view",
      "type": "function"
    },
    {
      "inputs": [],
      "name": "makeAnEpicNFT",
      "outputs": [],
      "stateMutability": "nonpayable",
      "type": "function"
    },
    {
      "inputs": [],
      "name": "name",
      "outputs": [
        {
          "internalType": "string",
          "name": "",
          "type": "string"
        }
      ],
      "stateMutability": "view",
      "type": "function"
    },
    {
      "inputs": [
        {
          "internalType": "uint256",
          "name": "tokenId",
          "type": "uint256"
        }
      ],
      "name": "ownerOf",
      "outputs": [
        {
          "internalType": "address",
          "name": "",
          "type": "address"
        }
      ],
      "stateMutability": "view",
      "type": "function"
    },
    {
      "inputs": [
        {
          "internalType": "uint256",
          "name": "tokenId",
          "type": "uint256"
        }
      ],
      "name": "pickRandomColor",
      "outputs": [
        {
          "internalType": "string",
          "name": "",
          "type": "string"
        }
      ],
      "stateMutability": "view",
      "type": "function"
    },
    {
      "inputs": [
        {
          "internalType": "uint256",
          "name": "tokenId",
          "type": "uint256"
        }
      ],
      "name": "pickRandomFirstWord",
      "outputs": [
        {
          "internalType": "string",
          "name": "",
          "type": "string"
        }
      ],
      "stateMutability": "view",
      "type": "function"
    },
    {
      "inputs": [
        {
          "internalType": "uint256",
          "name": "tokenId",
          "type": "uint256"
        }
      ],
      "name": "pickRandomSecondWord",
      "outputs": [
        {
          "internalType": "string",
          "name": "",
          "type": "string"
        }
      ],
      "stateMutability": "view",
      "type": "function"
    },
    {
      "inputs": [
        {
          "internalType": "uint256",
          "name": "tokenId",
          "type": "uint256"
        }
      ],
      "name": "pickRandomThirdWord",
      "outputs": [
        {
          "internalType": "string",
          "name": "",
          "type": "string"
        }
      ],
      "stateMutability": "view",
      "type": "function"
    },
    {
      "inputs": [
        {
          "internalType": "address",
          "name": "from",
          "type": "address"
        },
        {
          "internalType": "address",
          "name": "to",
          "type": "address"
        },
        {
          "internalType": "uint256",
          "name": "tokenId",
          "type": "uint256"
        }
      ],
      "name": "safeTransferFrom",
      "outputs": [],
      "stateMutability": "nonpayable",
      "type": "function"
    },
    {
      "inputs": [
        {
          "internalType": "address",
          "name": "from",
          "type": "address"
        },
        {
          "internalType": "address",
          "name": "to",
          "type": "address"
        },
        {
          "internalType": "uint256",
          "name": "tokenId",
          "type": "uint256"
        },
        {
          "internalType": "bytes",
          "name": "_data",
          "type": "bytes"
        }
      ],
      "name": "safeTransferFrom",
      "outputs": [],
      "stateMutability": "nonpayable",
      "type": "function"
    },
    {
      "inputs": [
        {
          "internalType": "address",
          "name": "operator",
          "type": "address"
        },
        {
          "internalType": "bool",
          "name": "approved",
          "type": "bool"
        }
      ],
      "name": "setApprovalForAll",
      "outputs": [],
      "stateMutability": "nonpayable",
      "type": "function"
    },
    {
      "inputs": [
        {
          "internalType": "bytes4",
          "name": "interfaceId",
          "type": "bytes4"
        }
      ],
      "name": "supportsInterface",
      "outputs": [
        {
          "internalType": "bool",
          "name": "",
          "type": "bool"
        }
      ],
      "stateMutability": "view",
      "type": "function"
    },
    {
      "inputs": [],
      "name": "symbol",
      "outputs": [
        {
          "internalType": "string",
          "name": "",
          "type": "string"
        }
      ],
      "stateMutability": "view",
      "type": "function"
    },
    {
      "inputs": [
        {
          "internalType": "uint256",
          "name": "tokenId",
          "type": "uint256"
        }
      ],
      "name": "tokenURI",
      "outputs": [
        {
          "internalType": "string",
          "name": "",
          "type": "string"
        }
      ],
      "stateMutability": "view",
      "type": "function"
    },
    {
      "inputs": [
        {
          "internalType": "address",
          "name": "from",
          "type": "address"
        },
        {
          "internalType": "address",
          "name": "to",
          "type": "address"
        },
        {
          "internalType": "uint256",
          "name": "tokenId",
          "type": "uint256"
        }
      ],
      "name": "transferFrom",
      "outputs": [],
      "stateMutability": "nonpayable",
      "type": "function"
    }
  ],
  "bytecode": "0x608060405260405180610100016040528060d381526020016200564760d3913960099080519060200190620000369291906200142b565b506040518060800160405280605681526020016200571a60569139600a9080519060200190620000689291906200142b565b506040518061036001604052806040518060400160405280600881526020017f4c6f68746172277300000000000000000000000000000000000000000000000081525081526020016040518060400160405280600781526020017f54686f676573270000000000000000000000000000000000000000000000000081525081526020016040518060400160405280600881526020017f5a697468656b277300000000000000000000000000000000000000000000000081525081526020016040518060400160405280600a81526020017f5572676f6e6f746827730000000000000000000000000000000000000000000081525081526020016040518060400160405280600981526020017f5a65656c76616e2773000000000000000000000000000000000000000000000081525081526020016040518060400160405280600981526020017f5a616b6172756d2773000000000000000000000000000000000000000000000081525081526020016040518060400160405280600781526020017f567567756c73270000000000000000000000000000000000000000000000000081525081526020016040518060400160405280600781526020017f56616e656327730000000000000000000000000000000000000000000000000081525081526020016040518060400160405280600981526020017f5361616c7261632773000000000000000000000000000000000000000000000081525081526020016040518060400160405280600581526020017f52616b277300000000000000000000000000000000000000000000000000000081525081526020016040518060400160405280600781526020017f50656c6f7227730000000000000000000000000000000000000000000000000081525081526020016040518060400160405280600881526020017f4e6164617272277300000000000000000000000000000000000000000000000081525081526020016040518060400160405280600b81526020017f4d797264647261616c277300000000000000000000000000000000000000000081525081526020016040518060400160405280600a81526020017f4d6570686973746f27730000000000000000000000000000000000000000000081525081526020016040518060400160405280600681526020017f4d6172612773000000000000000000000000000000000000000000000000000081525081526020016040518060400160405280600981526020017f4c656d757269612773000000000000000000000000000000000000000000000081525081526020016040518060400160405280600881526020017f4b7572617374277300000000000000000000000000000000000000000000000081525081526020016040518060400160405280600a81526020017f4b65726265726f7327730000000000000000000000000000000000000000000081525081526020016040518060400160405280600881526020017f4b68616c696d277300000000000000000000000000000000000000000000000081525081526020016040518060400160405280600781526020017f497a75616c27730000000000000000000000000000000000000000000000000081525081526020016040518060400160405280600881526020017f4872696d756c277300000000000000000000000000000000000000000000000081525081526020016040518060400160405280600681526020017f486174652773000000000000000000000000000000000000000000000000000081525081526020016040518060400160405280600781526020017f476865656427730000000000000000000000000000000000000000000000000081525081526020016040518060400160405280600781526020017f467572617827730000000000000000000000000000000000000000000000000081525081526020016040518060400160405280600781526020017f456c64657227730000000000000000000000000000000000000000000000000081525081526020016040518060400160405280600781526020017f44726f676127730000000000000000000000000000000000000000000000000081525081526020016040518060400160405280600981526020017f44726f676e616e27730000000000000000000000000000000000000000000000815250815250600b90601b620006be929190620014bc565b50604051806102a001604052806040518060400160405280600681526020017f536d656c6c79000000000000000000000000000000000000000000000000000081525081526020016040518060400160405280600881526020017f48756d6f726f757300000000000000000000000000000000000000000000000081525081526020016040518060400160405280600981526020017f546563686e6963616c000000000000000000000000000000000000000000000081525081526020016040518060400160405280600681526020017f4c6176697368000000000000000000000000000000000000000000000000000081525081526020016040518060400160405280600981526020017f566f6963656c657373000000000000000000000000000000000000000000000081525081526020016040518060400160405280600581526020017f4d61646c7900000000000000000000000000000000000000000000000000000081525081526020016040518060400160405280600581526020017f536361727900000000000000000000000000000000000000000000000000000081525081526020016040518060400160405280600681526020017f5377616e6b79000000000000000000000000000000000000000000000000000081525081526020016040518060400160405280600581526020017f477573747900000000000000000000000000000000000000000000000000000081525081526020016040518060400160405280600a81526020017f41636365737369626c650000000000000000000000000000000000000000000081525081526020016040518060400160405280600a81526020017f426577696c64657265640000000000000000000000000000000000000000000081525081526020016040518060400160405280600a81526020017f456e6368616e74696e670000000000000000000000000000000000000000000081525081526020016040518060400160405280600681526020017f536e6f747479000000000000000000000000000000000000000000000000000081525081526020016040518060400160405280600681526020017f46696c746879000000000000000000000000000000000000000000000000000081525081526020016040518060400160405280600781526020017f466569676e65640000000000000000000000000000000000000000000000000081525081526020016040518060400160405280600581526020017f4c6567616c00000000000000000000000000000000000000000000000000000081525081526020016040518060400160405280600881526020017f427573746c696e6700000000000000000000000000000000000000000000000081525081526020016040518060400160405280600781526020017f5a65616c6f75730000000000000000000000000000000000000000000000000081525081526020016040518060400160405280600a81526020017f53747570656e646f75730000000000000000000000000000000000000000000081525081526020016040518060400160405280600681526020017f537175617265000000000000000000000000000000000000000000000000000081525081526020016040518060400160405280600581526020017f476f646c79000000000000000000000000000000000000000000000000000000815250815250600c90601562000bb292919062001523565b50604051806102c001604052806040518060400160405280600c81526020017f517561727465727374616666000000000000000000000000000000000000000081525081526020016040518060400160405280600581526020017f53776f726400000000000000000000000000000000000000000000000000000081525081526020016040518060400160405280600681526020017f446167676572000000000000000000000000000000000000000000000000000081525081526020016040518060400160405280600481526020017f4d6163650000000000000000000000000000000000000000000000000000000081525081526020016040518060400160405280600381526020017f417865000000000000000000000000000000000000000000000000000000000081525081526020016040518060400160405280600381526020017f426f77000000000000000000000000000000000000000000000000000000000081525081526020016040518060400160405280600581526020017f537461666600000000000000000000000000000000000000000000000000000081525081526020016040518060400160405280600481526020017f57616e640000000000000000000000000000000000000000000000000000000081525081526020016040518060400160405280600781526020017f536365707465720000000000000000000000000000000000000000000000000081525081526020016040518060400160405280600581526020017f537065617200000000000000000000000000000000000000000000000000000081525081526020016040518060400160405280600881526020017f43726f7373626f7700000000000000000000000000000000000000000000000081525081526020016040518060400160405280600681526020017f48616d6d6572000000000000000000000000000000000000000000000000000081525081526020016040518060400160405280600581526020017f466c61696c00000000000000000000000000000000000000000000000000000081525081526020016040518060400160405280600681526020017f476c61697665000000000000000000000000000000000000000000000000000081525081526020016040518060400160405280600781526020017f48616c626572640000000000000000000000000000000000000000000000000081525081526020016040518060400160405280600581526020017f4c616e636500000000000000000000000000000000000000000000000000000081525081526020016040518060400160405280600481526020017f50696b650000000000000000000000000000000000000000000000000000000081525081526020016040518060400160405280600681526020017f526170696572000000000000000000000000000000000000000000000000000081525081526020016040518060400160405280600881526020017f5363696d6974617200000000000000000000000000000000000000000000000081525081526020016040518060400160405280600781526020017f54726964656e740000000000000000000000000000000000000000000000000081525081526020016040518060400160405280600981526020017f57617268616d6d6572000000000000000000000000000000000000000000000081525081526020016040518060400160405280600481526020017f5768697000000000000000000000000000000000000000000000000000000000815250815250600d906016620010e19291906200158a565b506040518060c001604052806040518060400160405280600381526020017f726564000000000000000000000000000000000000000000000000000000000081525081526020016040518060400160405280600781526020017f233038433241380000000000000000000000000000000000000000000000000081525081526020016040518060400160405280600581526020017f626c61636b00000000000000000000000000000000000000000000000000000081525081526020016040518060400160405280600681526020017f79656c6c6f77000000000000000000000000000000000000000000000000000081525081526020016040518060400160405280600481526020017f626c75650000000000000000000000000000000000000000000000000000000081525081526020016040518060400160405280600581526020017f677265656e000000000000000000000000000000000000000000000000000000815250815250600e9060066200125f929190620015f1565b503480156200126d57600080fd5b506040518060400160405280600981526020017f5371756172654e465400000000000000000000000000000000000000000000008152506040518060400160405280600681526020017f53515541524500000000000000000000000000000000000000000000000000008152508160009080519060200190620012f29291906200142b565b5080600190805190602001906200130b9291906200142b565b505050620013596040518060400160405280601e81526020017f54686973206973206d79204e465420636f6e74726163742e20576f61682100008152506200135f60201b620013081760201c565b62001812565b620013ff8160405160240162001376919062001726565b6040516020818303038152906040527f41304fac000000000000000000000000000000000000000000000000000000007bffffffffffffffffffffffffffffffffffffffffffffffffffffffff19166020820180517bffffffffffffffffffffffffffffffffffffffffffffffffffffffff83818316178352505050506200140260201b60201c565b50565b60008151905060006a636f6e736f6c652e6c6f679050602083016000808483855afa5050505050565b82805462001439906200179c565b90600052602060002090601f0160209004810192826200145d5760008555620014a9565b82601f106200147857805160ff1916838001178555620014a9565b82800160010185558215620014a9579182015b82811115620014a85782518255916020019190600101906200148b565b5b509050620014b8919062001658565b5090565b82805482825590600052602060002090810192821562001510579160200282015b828111156200150f578251829080519060200190620014fe9291906200142b565b5091602001919060010190620014dd565b5b5090506200151f919062001677565b5090565b82805482825590600052602060002090810192821562001577579160200282015b8281111562001576578251829080519060200190620015659291906200142b565b509160200191906001019062001544565b5b50905062001586919062001677565b5090565b828054828255906000526020600020908101928215620015de579160200282015b82811115620015dd578251829080519060200190620015cc9291906200142b565b5091602001919060010190620015ab565b5b509050620015ed919062001677565b5090565b82805482825590600052602060002090810192821562001645579160200282015b8281111562001644578251829080519060200190620016339291906200142b565b509160200191906001019062001612565b5b50905062001654919062001677565b5090565b5b808211156200167357600081600090555060010162001659565b5090565b5b808211156200169b57600081816200169191906200169f565b5060010162001678565b5090565b508054620016ad906200179c565b6000825580601f10620016c15750620016e2565b601f016020900490600052602060002090810190620016e1919062001658565b5b50565b6000620016f2826200174a565b620016fe818562001755565b93506200171081856020860162001766565b6200171b8162001801565b840191505092915050565b60006020820190508181036000830152620017428184620016e5565b905092915050565b600081519050919050565b600082825260208201905092915050565b60005b838110156200178657808201518184015260208101905062001769565b8381111562001796576000848401525b50505050565b60006002820490506001821680620017b557607f821691505b60208210811415620017cc57620017cb620017d2565b5b50919050565b7f4e487b7100000000000000000000000000000000000000000000000000000000600052602260045260246000fd5b6000601f19601f8301169050919050565b613e2580620018226000396000f3fe608060405234801561001057600080fd5b506004361061012c5760003560e01c80638f75374d116100ad578063c4e41b2211610071578063c4e41b2214610353578063c575757a14610371578063c87b56dd146103a1578063de9d132f146103d1578063e985e9c5146103db5761012c565b80638f75374d146102c357806395d89b41146102cd578063a22cb465146102eb578063b187301f14610307578063b88d4fde146103375761012c565b80632de38d68116100f45780632de38d68146101e757806342842e0e14610217578063514dc8c6146102335780636352211e1461026357806370a08231146102935761012c565b806301ffc9a71461013157806306fdde0314610161578063081812fc1461017f578063095ea7b3146101af57806323b872dd146101cb575b600080fd5b61014b60048036038101906101469190612734565b61040b565b6040516101589190612f53565b60405180910390f35b6101696104ed565b6040516101769190612f6e565b60405180910390f35b61019960048036038101906101949190612786565b61057f565b6040516101a69190612eae565b60405180910390f35b6101c960048036038101906101c491906126f8565b610604565b005b6101e560048036038101906101e091906125f2565b61071c565b005b61020160048036038101906101fc9190612786565b61077c565b60405161020e9190612f6e565b60405180910390f35b610231600480360381019061022c91906125f2565b61089a565b005b61024d60048036038101906102489190612786565b6108ba565b60405161025a9190612f6e565b60405180910390f35b61027d60048036038101906102789190612786565b6109d8565b60405161028a9190612eae565b60405180910390f35b6102ad60048036038101906102a8919061258d565b610a8a565b6040516102ba91906131ee565b60405180910390f35b6102cb610b42565b005b6102d5610b5c565b6040516102e29190612f6e565b60405180910390f35b610305600480360381019061030091906126bc565b610bee565b005b610321600480360381019061031c9190612786565b610c04565b60405161032e9190612f6e565b60405180910390f35b610351600480360381019061034c9190612641565b610d22565b005b61035b610d84565b60405161036891906131ee565b60405180910390f35b61038b60048036038101906103869190612786565b610d8e565b6040516103989190612f6e565b60405180910390f35b6103bb60048036038101906103b69190612786565b610eac565b6040516103c89190612f6e565b60405180910390f35b6103d9610ffe565b005b6103f560048036038101906103f091906125b6565b611274565b6040516104029190612f53565b60405180910390f35b60007f80ac58cd000000000000000000000000000000000000000000000000000000007bffffffffffffffffffffffffffffffffffffffffffffffffffffffff1916827bffffffffffffffffffffffffffffffffffffffffffffffffffffffff191614806104d657507f5b5e139f000000000000000000000000000000000000000000000000000000007bffffffffffffffffffffffffffffffffffffffffffffffffffffffff1916827bffffffffffffffffffffffffffffffffffffffffffffffffffffffff1916145b806104e657506104e5826113a1565b5b9050919050565b6060600080546104fc90613482565b80601f016020809104026020016040519081016040528092919081815260200182805461052890613482565b80156105755780601f1061054a57610100808354040283529160200191610575565b820191906000526020600020905b81548152906001019060200180831161055857829003601f168201915b5050505050905090565b600061058a8261140b565b6105c9576040517f08c379a00000000000000000000000000000000000000000000000000000000081526004016105c09061316e565b60405180910390fd5b6004600083815260200190815260200160002060009054906101000a900473ffffffffffffffffffffffffffffffffffffffff169050919050565b600061060f826109d8565b90508073ffffffffffffffffffffffffffffffffffffffff168373ffffffffffffffffffffffffffffffffffffffff161415610680576040517f08c379a0000000000000000000000000000000000000000000000000000000008152600401610677906131ae565b60405180910390fd5b8073ffffffffffffffffffffffffffffffffffffffff1661069f611477565b73ffffffffffffffffffffffffffffffffffffffff1614806106ce57506106cd816106c8611477565b611274565b5b61070d576040517f08c379a0000000000000000000000000000000000000000000000000000000008152600401610704906130ae565b60405180910390fd5b610717838361147f565b505050565b61072d610727611477565b82611538565b61076c576040517f08c379a0000000000000000000000000000000000000000000000000000000008152600401610763906131ce565b60405180910390fd5b610777838383611616565b505050565b606060006107b061078c8461187d565b60405160200161079c9190612e48565b604051602081830303815290604052611a2a565b9050600b80549050816107c3919061352e565b9050600b81815481106107ff577f4e487b7100000000000000000000000000000000000000000000000000000000600052603260045260246000fd5b90600052602060002001805461081490613482565b80601f016020809104026020016040519081016040528092919081815260200182805461084090613482565b801561088d5780601f106108625761010080835404028352916020019161088d565b820191906000526020600020905b81548152906001019060200180831161087057829003601f168201915b5050505050915050919050565b6108b583838360405180602001604052806000815250610d22565b505050565b606060006108ee6108ca8461187d565b6040516020016108da9190612e8c565b604051602081830303815290604052611a2a565b9050600e8054905081610901919061352e565b9050600e818154811061093d577f4e487b7100000000000000000000000000000000000000000000000000000000600052603260045260246000fd5b90600052602060002001805461095290613482565b80601f016020809104026020016040519081016040528092919081815260200182805461097e90613482565b80156109cb5780601f106109a0576101008083540402835291602001916109cb565b820191906000526020600020905b8154815290600101906020018083116109ae57829003601f168201915b5050505050915050919050565b6000806002600084815260200190815260200160002060009054906101000a900473ffffffffffffffffffffffffffffffffffffffff169050600073ffffffffffffffffffffffffffffffffffffffff168173ffffffffffffffffffffffffffffffffffffffff161415610a81576040517f08c379a0000000000000000000000000000000000000000000000000000000008152600401610a78906130ee565b60405180910390fd5b80915050919050565b60008073ffffffffffffffffffffffffffffffffffffffff168273ffffffffffffffffffffffffffffffffffffffff161415610afb576040517f08c379a0000000000000000000000000000000000000000000000000000000008152600401610af2906130ce565b60405180910390fd5b600360008373ffffffffffffffffffffffffffffffffffffffff1673ffffffffffffffffffffffffffffffffffffffff168152602001908152602001600020549050919050565b60086000815480929190610b55906134e5565b9190505550565b606060018054610b6b90613482565b80601f0160208091040260200160405190810160405280929190818152602001828054610b9790613482565b8015610be45780601f10610bb957610100808354040283529160200191610be4565b820191906000526020600020905b815481529060010190602001808311610bc757829003601f168201915b5050505050905090565b610c00610bf9611477565b8383611a5d565b5050565b60606000610c38610c148461187d565b604051602001610c249190612de1565b604051602081830303815290604052611a2a565b9050600c8054905081610c4b919061352e565b9050600c8181548110610c87577f4e487b7100000000000000000000000000000000000000000000000000000000600052603260045260246000fd5b906000526020600020018054610c9c90613482565b80601f0160208091040260200160405190810160405280929190818152602001828054610cc890613482565b8015610d155780601f10610cea57610100808354040283529160200191610d15565b820191906000526020600020905b815481529060010190602001808311610cf857829003601f168201915b5050505050915050919050565b610d33610d2d611477565b83611538565b610d72576040517f08c379a0000000000000000000000000000000000000000000000000000000008152600401610d69906131ce565b60405180910390fd5b610d7e84848484611bca565b50505050565b6000600854905090565b60606000610dc2610d9e8461187d565b604051602001610dae9190612dbf565b604051602081830303815290604052611a2a565b9050600d8054905081610dd5919061352e565b9050600d8181548110610e11577f4e487b7100000000000000000000000000000000000000000000000000000000600052603260045260246000fd5b906000526020600020018054610e2690613482565b80601f0160208091040260200160405190810160405280929190818152602001828054610e5290613482565b8015610e9f5780601f10610e7457610100808354040283529160200191610e9f565b820191906000526020600020905b815481529060010190602001808311610e8257829003601f168201915b5050505050915050919050565b6060610eb78261140b565b610ef6576040517f08c379a0000000000000000000000000000000000000000000000000000000008152600401610eed9061314e565b60405180910390fd5b6000600660008481526020019081526020016000208054610f1690613482565b80601f0160208091040260200160405190810160405280929190818152602001828054610f4290613482565b8015610f8f5780601f10610f6457610100808354040283529160200191610f8f565b820191906000526020600020905b815481529060010190602001808311610f7257829003601f168201915b505050505090506000610fa0611c26565b9050600081511415610fb6578192505050610ff9565b600082511115610feb578082604051602001610fd3929190612ce9565b60405160208183030381529060405292505050610ff9565b610ff484611c3d565b925050505b919050565b600061100a6007611ce4565b905060006110178261077c565b9050600061102483610c04565b9050600061103184610d8e565b9050600083838360405160200161104a93929190612d0d565b60405160208183030381529060405290506000611066866108ba565b90506000600982600a856040516020016110839493929190612d54565b604051602081830303815290604052905060006110c8846110a384611cf2565b6040516020016110b4929190612e03565b604051602081830303815290604052611cf2565b90506000816040516020016110dd9190612e6a565b604051602081830303815290604052905061112c6040518060400160405280601581526020017f0a2d2d2d2d2d2d2d2d2d2d2d2d2d2d2d2d2d2d2d2d0000000000000000000000815250611308565b611154816040516020016111409190612d9d565b604051602081830303815290604052611308565b6111926040518060400160405280601581526020017f2d2d2d2d2d2d2d2d2d2d2d2d2d2d2d2d2d2d2d2d0a0000000000000000000000815250611308565b61119a610b42565b60326111a4610d84565b11156111e5576040517f08c379a00000000000000000000000000000000000000000000000000000000081526004016111dc90612fce565b60405180910390fd5b6111ef338a611eb0565b6111f98982611ece565b6112036007611f42565b611226604051806060016040528060258152602001613d8b602591398a33611f58565b7f4d3a24d1178b5e84c3f01818172d8951082caa1dad646fead020c45a049544ef338a61125286611cf2565b60405161126193929190612f15565b60405180910390a1505050505050505050565b6000600560008473ffffffffffffffffffffffffffffffffffffffff1673ffffffffffffffffffffffffffffffffffffffff16815260200190815260200160002060008373ffffffffffffffffffffffffffffffffffffffff1673ffffffffffffffffffffffffffffffffffffffff16815260200190815260200160002060009054906101000a900460ff16905092915050565b61139e8160405160240161131c9190612f6e565b6040516020818303038152906040527f41304fac000000000000000000000000000000000000000000000000000000007bffffffffffffffffffffffffffffffffffffffffffffffffffffffff19166020820180517bffffffffffffffffffffffffffffffffffffffffffffffffffffffff8381831617835250505050611ff7565b50565b60007f01ffc9a7000000000000000000000000000000000000000000000000000000007bffffffffffffffffffffffffffffffffffffffffffffffffffffffff1916827bffffffffffffffffffffffffffffffffffffffffffffffffffffffff1916149050919050565b60008073ffffffffffffffffffffffffffffffffffffffff166002600084815260200190815260200160002060009054906101000a900473ffffffffffffffffffffffffffffffffffffffff1673ffffffffffffffffffffffffffffffffffffffff1614159050919050565b600033905090565b816004600083815260200190815260200160002060006101000a81548173ffffffffffffffffffffffffffffffffffffffff021916908373ffffffffffffffffffffffffffffffffffffffff160217905550808273ffffffffffffffffffffffffffffffffffffffff166114f2836109d8565b73ffffffffffffffffffffffffffffffffffffffff167f8c5be1e5ebec7d5bd14f71427d1e84f3dd0314c0f7b2291e5b200ac8c7c3b92560405160405180910390a45050565b60006115438261140b565b611582576040517f08c379a00000000000000000000000000000000000000000000000000000000081526004016115799061308e565b60405180910390fd5b600061158d836109d8565b90508073ffffffffffffffffffffffffffffffffffffffff168473ffffffffffffffffffffffffffffffffffffffff1614806115fc57508373ffffffffffffffffffffffffffffffffffffffff166115e48461057f565b73ffffffffffffffffffffffffffffffffffffffff16145b8061160d575061160c8185611274565b5b91505092915050565b8273ffffffffffffffffffffffffffffffffffffffff16611636826109d8565b73ffffffffffffffffffffffffffffffffffffffff161461168c576040517f08c379a00000000000000000000000000000000000000000000000000000000081526004016116839061300e565b60405180910390fd5b600073ffffffffffffffffffffffffffffffffffffffff168273ffffffffffffffffffffffffffffffffffffffff1614156116fc576040517f08c379a00000000000000000000000000000000000000000000000000000000081526004016116f39061304e565b60405180910390fd5b611707838383612020565b61171260008261147f565b6001600360008573ffffffffffffffffffffffffffffffffffffffff1673ffffffffffffffffffffffffffffffffffffffff16815260200190815260200160002060008282546117629190613398565b925050819055506001600360008473ffffffffffffffffffffffffffffffffffffffff1673ffffffffffffffffffffffffffffffffffffffff16815260200190815260200160002060008282546117b991906132b7565b92505081905550816002600083815260200190815260200160002060006101000a81548173ffffffffffffffffffffffffffffffffffffffff021916908373ffffffffffffffffffffffffffffffffffffffff160217905550808273ffffffffffffffffffffffffffffffffffffffff168473ffffffffffffffffffffffffffffffffffffffff167fddf252ad1be2c89b69c2b068fc378daa952ba7f163c4a11628f55a4df523b3ef60405160405180910390a4611878838383612025565b505050565b606060008214156118c5576040518060400160405280600181526020017f30000000000000000000000000000000000000000000000000000000000000008152509050611a25565b600082905060005b600082146118f75780806118e0906134e5565b915050600a826118f0919061330d565b91506118cd565b60008167ffffffffffffffff811115611939577f4e487b7100000000000000000000000000000000000000000000000000000000600052604160045260246000fd5b6040519080825280601f01601f19166020018201604052801561196b5781602001600182028036833780820191505090505b5090505b60008514611a1e576001826119849190613398565b9150600a85611993919061352e565b603061199f91906132b7565b60f81b8183815181106119db577f4e487b7100000000000000000000000000000000000000000000000000000000600052603260045260246000fd5b60200101907effffffffffffffffffffffffffffffffffffffffffffffffffffffffffffff1916908160001a905350600a85611a17919061330d565b945061196f565b8093505050505b919050565b600081604051602001611a3d9190612cd2565b6040516020818303038152906040528051906020012060001c9050919050565b8173ffffffffffffffffffffffffffffffffffffffff168373ffffffffffffffffffffffffffffffffffffffff161415611acc576040517f08c379a0000000000000000000000000000000000000000000000000000000008152600401611ac39061306e565b60405180910390fd5b80600560008573ffffffffffffffffffffffffffffffffffffffff1673ffffffffffffffffffffffffffffffffffffffff16815260200190815260200160002060008473ffffffffffffffffffffffffffffffffffffffff1673ffffffffffffffffffffffffffffffffffffffff16815260200190815260200160002060006101000a81548160ff0219169083151502179055508173ffffffffffffffffffffffffffffffffffffffff168373ffffffffffffffffffffffffffffffffffffffff167f17307eab39ab6107e8899845ad3d59bd9653f200f220920489ca2b5937696c3183604051611bbd9190612f53565b60405180910390a3505050565b611bd5848484611616565b611be18484848461202a565b611c20576040517f08c379a0000000000000000000000000000000000000000000000000000000008152600401611c1790612fee565b60405180910390fd5b50505050565b606060405180602001604052806000815250905090565b6060611c488261140b565b611c87576040517f08c379a0000000000000000000000000000000000000000000000000000000008152600401611c7e9061318e565b60405180910390fd5b6000611c91611c26565b90506000815111611cb15760405180602001604052806000815250611cdc565b80611cbb8461187d565b604051602001611ccc929190612ce9565b6040516020818303038152906040525b915050919050565b600081600001549050919050565b60606000825190506000811415611d1b5760405180602001604052806000815250915050611eab565b60006003600283611d2c91906132b7565b611d36919061330d565b6004611d42919061333e565b90506000602082611d5391906132b7565b67ffffffffffffffff811115611d92577f4e487b7100000000000000000000000000000000000000000000000000000000600052604160045260246000fd5b6040519080825280601f01601f191660200182016040528015611dc45781602001600182028036833780820191505090505b5090506000604051806060016040528060408152602001613db0604091399050600181016020830160005b86811015611e685760038101905062ffffff818a015116603f8160121c168401518060081b905060ff603f83600c1c1686015116810190508060081b905060ff603f8360061c1686015116810190508060081b905060ff603f831686015116810190508060e01b90508084526004840193505050611def565b506003860660018114611e825760028114611e9257611e9d565b613d3d60f01b6002830352611e9d565b603d60f81b60018303525b508484525050819450505050505b919050565b611eca8282604051806020016040528060008152506121c1565b5050565b611ed78261140b565b611f16576040517f08c379a0000000000000000000000000000000000000000000000000000000008152600401611f0d9061310e565b60405180910390fd5b80600660008481526020019081526020016000209080519060200190611f3d929190612419565b505050565b6001816000016000828254019250508190555050565b611ff2838383604051602401611f7093929190612f90565b6040516020818303038152906040527fe3849f79000000000000000000000000000000000000000000000000000000007bffffffffffffffffffffffffffffffffffffffffffffffffffffffff19166020820180517bffffffffffffffffffffffffffffffffffffffffffffffffffffffff8381831617835250505050611ff7565b505050565b60008151905060006a636f6e736f6c652e6c6f679050602083016000808483855afa5050505050565b505050565b505050565b600061204b8473ffffffffffffffffffffffffffffffffffffffff1661221c565b156121b4578373ffffffffffffffffffffffffffffffffffffffff1663150b7a02612074611477565b8786866040518563ffffffff1660e01b81526004016120969493929190612ec9565b602060405180830381600087803b1580156120b057600080fd5b505af19250505080156120e157506040513d601f19601f820116820180604052508101906120de919061275d565b60015b612164573d8060008114612111576040519150601f19603f3d011682016040523d82523d6000602084013e612116565b606091505b5060008151141561215c576040517f08c379a000000000000000000000000000000000000000000000000000000000815260040161215390612fee565b60405180910390fd5b805181602001fd5b63150b7a0260e01b7bffffffffffffffffffffffffffffffffffffffffffffffffffffffff1916817bffffffffffffffffffffffffffffffffffffffffffffffffffffffff1916149150506121b9565b600190505b949350505050565b6121cb838361223f565b6121d8600084848461202a565b612217576040517f08c379a000000000000000000000000000000000000000000000000000000000815260040161220e90612fee565b60405180910390fd5b505050565b6000808273ffffffffffffffffffffffffffffffffffffffff163b119050919050565b600073ffffffffffffffffffffffffffffffffffffffff168273ffffffffffffffffffffffffffffffffffffffff1614156122af576040517f08c379a00000000000000000000000000000000000000000000000000000000081526004016122a69061312e565b60405180910390fd5b6122b88161140b565b156122f8576040517f08c379a00000000000000000000000000000000000000000000000000000000081526004016122ef9061302e565b60405180910390fd5b61230460008383612020565b6001600360008473ffffffffffffffffffffffffffffffffffffffff1673ffffffffffffffffffffffffffffffffffffffff168152602001908152602001600020600082825461235491906132b7565b92505081905550816002600083815260200190815260200160002060006101000a81548173ffffffffffffffffffffffffffffffffffffffff021916908373ffffffffffffffffffffffffffffffffffffffff160217905550808273ffffffffffffffffffffffffffffffffffffffff16600073ffffffffffffffffffffffffffffffffffffffff167fddf252ad1be2c89b69c2b068fc378daa952ba7f163c4a11628f55a4df523b3ef60405160405180910390a461241560008383612025565b5050565b82805461242590613482565b90600052602060002090601f016020900481019282612447576000855561248e565b82601f1061246057805160ff191683800117855561248e565b8280016001018555821561248e579182015b8281111561248d578251825591602001919060010190612472565b5b50905061249b919061249f565b5090565b5b808211156124b85760008160009055506001016124a0565b5090565b60006124cf6124ca8461322e565b613209565b9050828152602081018484840111156124e757600080fd5b6124f2848285613440565b509392505050565b60008135905061250981613d2e565b92915050565b60008135905061251e81613d45565b92915050565b60008135905061253381613d5c565b92915050565b60008151905061254881613d5c565b92915050565b600082601f83011261255f57600080fd5b813561256f8482602086016124bc565b91505092915050565b60008135905061258781613d73565b92915050565b60006020828403121561259f57600080fd5b60006125ad848285016124fa565b91505092915050565b600080604083850312156125c957600080fd5b60006125d7858286016124fa565b92505060206125e8858286016124fa565b9150509250929050565b60008060006060848603121561260757600080fd5b6000612615868287016124fa565b9350506020612626868287016124fa565b925050604061263786828701612578565b9150509250925092565b6000806000806080858703121561265757600080fd5b6000612665878288016124fa565b9450506020612676878288016124fa565b935050604061268787828801612578565b925050606085013567ffffffffffffffff8111156126a457600080fd5b6126b08782880161254e565b91505092959194509250565b600080604083850312156126cf57600080fd5b60006126dd858286016124fa565b92505060206126ee8582860161250f565b9150509250929050565b6000806040838503121561270b57600080fd5b6000612719858286016124fa565b925050602061272a85828601612578565b9150509250929050565b60006020828403121561274657600080fd5b600061275484828501612524565b91505092915050565b60006020828403121561276f57600080fd5b600061277d84828501612539565b91505092915050565b60006020828403121561279857600080fd5b60006127a684828501612578565b91505092915050565b6127b8816133cc565b82525050565b6127c7816133de565b82525050565b60006127d882613274565b6127e2818561328a565b93506127f281856020860161344f565b6127fb8161361b565b840191505092915050565b60006128118261327f565b61281b818561329b565b935061282b81856020860161344f565b6128348161361b565b840191505092915050565b600061284a8261327f565b61285481856132ac565b935061286481856020860161344f565b80840191505092915050565b6000815461287d81613482565b61288781866132ac565b945060018216600081146128a257600181146128b3576128e6565b60ff198316865281860193506128e6565b6128bc8561325f565b60005b838110156128de578154818901526001820191506020810190506128bf565b838801955050505b50505092915050565b60006128fc6025836132ac565b91506129078261362c565b602582019050919050565b600061291f60198361329b565b915061292a8261367b565b602082019050919050565b600061294260328361329b565b915061294d826136a4565b604082019050919050565b600061296560258361329b565b9150612970826136f3565b604082019050919050565b6000612988601c8361329b565b915061299382613742565b602082019050919050565b60006129ab600a836132ac565b91506129b68261376b565b600a82019050919050565b60006129ce60248361329b565b91506129d982613794565b604082019050919050565b60006129f160198361329b565b91506129fc826137e3565b602082019050919050565b6000612a146063836132ac565b9150612a1f8261380c565b606382019050919050565b6000612a37600b836132ac565b9150612a42826138a7565b600b82019050919050565b6000612a5a602c8361329b565b9150612a65826138d0565b604082019050919050565b6000612a7d600d836132ac565b9150612a888261391f565b600d82019050919050565b6000612aa06001836132ac565b9150612aab82613948565b600182019050919050565b6000612ac360388361329b565b9150612ace82613971565b604082019050919050565b6000612ae6602a8361329b565b9150612af1826139c0565b604082019050919050565b6000612b0960298361329b565b9150612b1482613a0f565b604082019050919050565b6000612b2c602e8361329b565b9150612b3782613a5e565b604082019050919050565b6000612b4f6002836132ac565b9150612b5a82613aad565b600282019050919050565b6000612b7260208361329b565b9150612b7d82613ad6565b602082019050919050565b6000612b9560318361329b565b9150612ba082613aff565b604082019050919050565b6000612bb8602c8361329b565b9150612bc382613b4e565b604082019050919050565b6000612bdb602f8361329b565b9150612be682613b9d565b604082019050919050565b6000612bfe600a836132ac565b9150612c0982613bec565b600a82019050919050565b6000612c2160218361329b565b9150612c2c82613c15565b604082019050919050565b6000612c44600a836132ac565b9150612c4f82613c64565b600a82019050919050565b6000612c67601d836132ac565b9150612c7282613c8d565b601d82019050919050565b6000612c8a60318361329b565b9150612c9582613cb6565b604082019050919050565b6000612cad6005836132ac565b9150612cb882613d05565b600582019050919050565b612ccc81613436565b82525050565b6000612cde828461283f565b915081905092915050565b6000612cf5828561283f565b9150612d01828461283f565b91508190509392505050565b6000612d19828661283f565b9150612d2482612a93565b9150612d30828561283f565b9150612d3b82612a93565b9150612d47828461283f565b9150819050949350505050565b6000612d608287612870565b9150612d6c828661283f565b9150612d788285612870565b9150612d84828461283f565b9150612d8f82612a70565b915081905095945050505050565b6000612da8826128ef565b9150612db4828461283f565b915081905092915050565b6000612dca8261299e565b9150612dd6828461283f565b915081905092915050565b6000612dec82612a2a565b9150612df8828461283f565b915081905092915050565b6000612e0e82612bf1565b9150612e1a828561283f565b9150612e2582612a07565b9150612e31828461283f565b9150612e3c82612b42565b91508190509392505050565b6000612e5382612c37565b9150612e5f828461283f565b915081905092915050565b6000612e7582612c5a565b9150612e81828461283f565b915081905092915050565b6000612e9782612ca0565b9150612ea3828461283f565b915081905092915050565b6000602082019050612ec360008301846127af565b92915050565b6000608082019050612ede60008301876127af565b612eeb60208301866127af565b612ef86040830185612cc3565b8181036060830152612f0a81846127cd565b905095945050505050565b6000606082019050612f2a60008301866127af565b612f376020830185612cc3565b8181036040830152612f498184612806565b9050949350505050565b6000602082019050612f6860008301846127be565b92915050565b60006020820190508181036000830152612f888184612806565b905092915050565b60006060820190508181036000830152612faa8186612806565b9050612fb96020830185612cc3565b612fc660408301846127af565b949350505050565b60006020820190508181036000830152612fe781612912565b9050919050565b6000602082019050818103600083015261300781612935565b9050919050565b6000602082019050818103600083015261302781612958565b9050919050565b600060208201905081810360008301526130478161297b565b9050919050565b60006020820190508181036000830152613067816129c1565b9050919050565b60006020820190508181036000830152613087816129e4565b9050919050565b600060208201905081810360008301526130a781612a4d565b9050919050565b600060208201905081810360008301526130c781612ab6565b9050919050565b600060208201905081810360008301526130e781612ad9565b9050919050565b6000602082019050818103600083015261310781612afc565b9050919050565b6000602082019050818103600083015261312781612b1f565b9050919050565b6000602082019050818103600083015261314781612b65565b9050919050565b6000602082019050818103600083015261316781612b88565b9050919050565b6000602082019050818103600083015261318781612bab565b9050919050565b600060208201905081810360008301526131a781612bce565b9050919050565b600060208201905081810360008301526131c781612c14565b9050919050565b600060208201905081810360008301526131e781612c7d565b9050919050565b60006020820190506132036000830184612cc3565b92915050565b6000613213613224565b905061321f82826134b4565b919050565b6000604051905090565b600067ffffffffffffffff821115613249576132486135ec565b5b6132528261361b565b9050602081019050919050565b60008190508160005260206000209050919050565b600081519050919050565b600081519050919050565b600082825260208201905092915050565b600082825260208201905092915050565b600081905092915050565b60006132c282613436565b91506132cd83613436565b9250827fffffffffffffffffffffffffffffffffffffffffffffffffffffffffffffffff038211156133025761330161355f565b5b828201905092915050565b600061331882613436565b915061332383613436565b9250826133335761333261358e565b5b828204905092915050565b600061334982613436565b915061335483613436565b9250817fffffffffffffffffffffffffffffffffffffffffffffffffffffffffffffffff048311821515161561338d5761338c61355f565b5b828202905092915050565b60006133a382613436565b91506133ae83613436565b9250828210156133c1576133c061355f565b5b828203905092915050565b60006133d782613416565b9050919050565b60008115159050919050565b60007fffffffff0000000000000000000000000000000000000000000000000000000082169050919050565b600073ffffffffffffffffffffffffffffffffffffffff82169050919050565b6000819050919050565b82818337600083830152505050565b60005b8381101561346d578082015181840152602081019050613452565b8381111561347c576000848401525b50505050565b6000600282049050600182168061349a57607f821691505b602082108114156134ae576134ad6135bd565b5b50919050565b6134bd8261361b565b810181811067ffffffffffffffff821117156134dc576134db6135ec565b5b80604052505050565b60006134f082613436565b91507fffffffffffffffffffffffffffffffffffffffffffffffffffffffffffffffff8214156135235761352261355f565b5b600182019050919050565b600061353982613436565b915061354483613436565b9250826135545761355361358e565b5b828206905092915050565b7f4e487b7100000000000000000000000000000000000000000000000000000000600052601160045260246000fd5b7f4e487b7100000000000000000000000000000000000000000000000000000000600052601260045260246000fd5b7f4e487b7100000000000000000000000000000000000000000000000000000000600052602260045260246000fd5b7f4e487b7100000000000000000000000000000000000000000000000000000000600052604160045260246000fd5b6000601f19601f8301169050919050565b7f68747470733a2f2f6e6674707265766965772e30786465762e636f6465732f3f60008201527f636f64653d000000000000000000000000000000000000000000000000000000602082015250565b7f48617320657863656564656420737570706c79206c696d697400000000000000600082015250565b7f4552433732313a207472616e7366657220746f206e6f6e20455243373231526560008201527f63656976657220696d706c656d656e7465720000000000000000000000000000602082015250565b7f4552433732313a207472616e736665722066726f6d20696e636f72726563742060008201527f6f776e6572000000000000000000000000000000000000000000000000000000602082015250565b7f4552433732313a20746f6b656e20616c7265616479206d696e74656400000000600082015250565b7f54484952445f574f524400000000000000000000000000000000000000000000600082015250565b7f4552433732313a207472616e7366657220746f20746865207a65726f2061646460008201527f7265737300000000000000000000000000000000000000000000000000000000602082015250565b7f4552433732313a20617070726f766520746f2063616c6c657200000000000000600082015250565b7f222c20226465736372697074696f6e223a20224120686967686c79206163636c60008201527f61696d656420636f6c6c656374696f6e206f6620737175617265732e222c202260208201527f696d616765223a2022646174613a696d6167652f7376672b786d6c3b6261736560408201527f36342c0000000000000000000000000000000000000000000000000000000000606082015250565b7f5345434f4e445f574f5244000000000000000000000000000000000000000000600082015250565b7f4552433732313a206f70657261746f7220717565727920666f72206e6f6e657860008201527f697374656e7420746f6b656e0000000000000000000000000000000000000000602082015250565b7f3c2f746578743e3c2f7376673e00000000000000000000000000000000000000600082015250565b7f2000000000000000000000000000000000000000000000000000000000000000600082015250565b7f4552433732313a20617070726f76652063616c6c6572206973206e6f74206f7760008201527f6e6572206e6f7220617070726f76656420666f7220616c6c0000000000000000602082015250565b7f4552433732313a2062616c616e636520717565727920666f7220746865207a6560008201527f726f206164647265737300000000000000000000000000000000000000000000602082015250565b7f4552433732313a206f776e657220717565727920666f72206e6f6e657869737460008201527f656e7420746f6b656e0000000000000000000000000000000000000000000000602082015250565b7f45524337323155524953746f726167653a2055524920736574206f66206e6f6e60008201527f6578697374656e7420746f6b656e000000000000000000000000000000000000602082015250565b7f227d000000000000000000000000000000000000000000000000000000000000600082015250565b7f4552433732313a206d696e7420746f20746865207a65726f2061646472657373600082015250565b7f45524337323155524953746f726167653a2055524920717565727920666f722060008201527f6e6f6e6578697374656e7420746f6b656e000000000000000000000000000000602082015250565b7f4552433732313a20617070726f76656420717565727920666f72206e6f6e657860008201527f697374656e7420746f6b656e0000000000000000000000000000000000000000602082015250565b7f4552433732314d657461646174613a2055524920717565727920666f72206e6f60008201527f6e6578697374656e7420746f6b656e0000000000000000000000000000000000602082015250565b7f7b226e616d65223a202200000000000000000000000000000000000000000000600082015250565b7f4552433732313a20617070726f76616c20746f2063757272656e74206f776e6560008201527f7200000000000000000000000000000000000000000000000000000000000000602082015250565b7f46495253545f574f524400000000000000000000000000000000000000000000600082015250565b7f646174613a6170706c69636174696f6e2f6a736f6e3b6261736536342c000000600082015250565b7f4552433732313a207472616e736665722063616c6c6572206973206e6f74206f60008201527f776e6572206e6f7220617070726f766564000000000000000000000000000000602082015250565b7f434f4c4f52000000000000000000000000000000000000000000000000000000600082015250565b613d37816133cc565b8114613d4257600080fd5b50565b613d4e816133de565b8114613d5957600080fd5b50565b613d65816133ea565b8114613d7057600080fd5b50565b613d7c81613436565b8114613d8757600080fd5b5056fe416e204e465420772f20494420257320686173206265656e206d696e74656420746f2025734142434445464748494a4b4c4d4e4f505152535455565758595a6162636465666768696a6b6c6d6e6f707172737475767778797a303132333435363738392b2fa2646970667358221220f21b3022bf21bc0c98c4920883c566b1fa5a2b0e082871ce011cd0299ac5cc1d64736f6c634300080100333c73766720786d6c6e733d27687474703a2f2f7777772e77332e6f72672f323030302f73766727207072657365727665417370656374526174696f3d27784d696e594d696e206d656574272076696577426f783d273020302033353020333530273e3c7374796c653e2e62617365207b2066696c6c3a2077686974653b20666f6e742d66616d696c793a2073657269663b20666f6e742d73697a653a20323470783b207d3c2f7374796c653e3c726563742077696474683d273130302527206865696768743d2731303025272066696c6c3d27272f3e3c7465787420783d273530252720793d273530252720636c6173733d27626173652720646f6d696e616e742d626173656c696e653d276d6964646c652720746578742d616e63686f723d276d6964646c65273e",
  "linkReferences": {},
  "deployedLinkReferences": {}
}